:020000040800F2
:1000000000000120D10E0008150C00081F0C00088C
:10001000250C00082B0C0008310C00080000000023
:10002000000000000000000000000000370C000885
:10003000450C000800000000530C0008610C00088B
:10004000210F0008210F0008210F0008210F0008D0
:10005000210F0008210F0008210F0008210F0008C0
:10006000210F0008210F0008210F0008210F0008B0
:10007000210F0008210F0008210F0008210F0008A0
:10008000210F0008210F0008210F000800000000C8
:10009000000000000000000000000000210F000828
:1000A000210F0008210F0008210F0008210F000870
:1000B000210F0008210F0008210F0008210F000860
:1000C000210F0008210F0008210F0008210F000850
:1000D000210F0008210F0008210F00080000000078
:1000E000210F0008210F0008210F00080000000068
:1000F000000000000000000000000000210F0008C8
:1001000000000000210F0008210F0008210F000847
:1001100000000000000000000000000000000000DF
:10012000210F0008210F0008210F0008210F0008EF
:10013000210F000800000000000000000000000087
:100140000000000000000000000000006D0C00082E
:10015000210F0008210F0008210F0008210F0008BF
:10016000210F0008210F000800000000000000001F
:10017000000000000000000000000000000000007F
:1001800000000000210F0008000000000000000037
:04019000210F000833
:1001A00010B5054C237833B9044B13B10448AFF3B1
:1001B00000800123237010BD180200200000000001
:1001C000C4E4000808B5034B1BB103490348AFF36F
:1001D000008008BD000000001C020020C4E40008EC
:1001E00001F0FF01102A2BDB10F0070F08D010F8E8
:1001F000013B013A8B422DD010F0070F42B3F6D1EC
:10020000F0B441EA012141EA014122F007047FF004
:1002100000070023F0E80256083C85EA010586EA5B
:10022000010685FA47F5A3FA87F586FA47F6A5FA97
:1002300087F68EB9EED1F0BC01F0FF0102F00702A3
:1002400032B110F8013B013A83EA010313B1F8D14E
:100250000020704701387047002D06BF354603382F
:10026000073815F0010F07D1013015F4807F02BF68
:10027000013015F4C03F0130F0BC0138704700BFB9
:1002800053B94AB9002908BF00281CBF4FF0FF31FD
:100290004FF0FF3000F06EB9ADF1080C6DE904CEFF
:1002A00000F006F8DDF804E0DDE9022304B0704751
:1002B0002DE9F047089D04468C46002B40F08380D2
:1002C0008A42174647D9B2FA82F242B1C2F12000FF
:1002D00024FA00F09140974040EA010C94404FEA24
:1002E0001748230CBCFBF8F61FFA87FE08FB16C163
:1002F00043EA014306FB0EF1994209D9FB1806F1C6
:10030000FF3080F01981994240F21681023E3B4451
:100310005B1AA4B2B3FBF8F008FB103344EA0344C1
:1003200000FB0EFEA64509D93C1900F1FF3380F011
:100330000581A64540F2028102383C4440EA06406D
:10034000A4EB0E0400261DB1D4400023C5E90043F0
:100350003146BDE8F08702B9FFDEB2FA82F2002A28
:1003600050D1CB1B4FEA174E1FFA87F80126B3FB7B
:10037000FEFC210C0EFB1C3341EA034108FB0CF38D
:100380008B4207D979180CF1FF3002D28B4200F270
:10039000E9808446C91AA3B2B1FBFEF00EFB10112E
:1003A00043EA014408FB00F8A04507D93C1900F1D5
:1003B000FF3302D2A04500F2D9801846A4EB08040E
:1003C00040EA0C40BFE78B4209D9002D00F0B18014
:1003D0000026C5E9000130463146BDE8F087B3FA92
:1003E00083F6002E4AD18B4202D3824200F2B880BB
:1003F000841A61EB030101208C46002DA8D0C5E9C9
:10040000004CA5E7C2F1200320FA03F6974001FA59
:1004100002F04FEA174ED9403043030CB1FBFEF611
:100420001FFA87F80EFB161143EA014306FB08F199
:10043000994204FA02F409D9FB1806F1FF3C80F056
:100440008D80994240F28A80023E3B445B1A81B221
:10045000B3FBFEF00EFB103341EA034100FB08F34F
:100460008B4207D9791800F1FF3C73D28B4271D9C6
:1004700002383944CB1A40EA064678E7C6F1200C28
:1004800003FA06F422FA0CF31C4320FA0CF701FAE3
:1004900006F34FEA144E21FA0CF11F433B0CB1FB5B
:1004A000FEF91FFA84F80EFB191143EA014109FB1A
:1004B00008FA8A4502FA06F200FA06F308D961182A
:1004C00009F1FF3048D28A4546D9A9F102092144F1
:1004D000A1EB0A01BFB2B1FBFEF00EFB101147EA1F
:1004E000014700FB08F8B84507D9E71900F1FF31CB
:1004F0002ED2B8452CD90238274440EA0940A7EB50
:100500000807A0FB02894F45C64649461AD317D0B3
:100510005DB1B3EB0E0267EB010707FA0CFCF2408A
:100520004CEA0202F740C5E9002700263146BDE843
:10053000F0872E4628460BE70646E9E61846FDE614
:100540004345E5D2B8EB020E69EB04010138DFE761
:100550000846D2E760468DE78146B9E7664675E70B
:1005600030464AE7ACF1020C394413E702383C4408
:1005700024E700BF704700BF80B58CB000AF07F123
:100580001C0300221A605A609A60DA601A61002324
:10059000BB61754B1B6B744A43F010031363724BC2
:1005A0001B6B03F01003BB61BB6900237B616E4BC7
:1005B0001B6B6D4A43F0040313636B4B1B6B03F01F
:1005C00004037B617B6900233B61674B1B6B664ABD
:1005D00043F080031363644B1B6B03F080033B61A8
:1005E0003B690023FB60604B1B6B5F4A43F00103D8
:1005F00013635D4B1B6B03F00103FB60FB6800237F
:10060000BB60594B1B6B584A43F002031363564BB4
:100610001B6B03F00203BB60BB6800237B60524B83
:100620001B6B514A43F0080313634F4B1B6B03F0E2
:1006300008037B607B68002210214C4801F0DCF845
:1006400000224FF4E0614A4801F0D6F800224FF64C
:100650000171484801F0D0F84FF67F03FB61002399
:100660003B6200237B6207F11C031946404800F0FF
:100670002FFE42F2FF13FB6103233B6200237B62E8
:1006800007F11C0319463C4800F022FEEF23FB61F2
:1006900003233B6200237B6207F11C0319463348A6
:1006A00000F016FE1023FB6101233B6200237B62F6
:1006B0000023BB6207F11C0319462C4800F008FE1A
:1006C0004FF20743FB6103233B6200237B6207F188
:1006D0001C031946294800F0FBFD8023FB6103231E
:1006E0003B6200237B6207F11C031946204800F09F
:1006F000EFFD4FF4E063FB6101233B6200237B626B
:100700000023BB6207F11C031946194800F0E0FD05
:100710004FF60173FB6101233B6200237B620023E0
:10072000BB6207F11C031946124800F0D1FDFE23FD
:10073000FB6100233B6200237B6207F11C03194627
:100740000C4800F0C5FD4FF44073FB6100233B6291
:1007500000237B6207F11C031946084800F0B8FD2E
:1007600000BF3037BD4680BD003802400000024067
:1007700000100240000C0240000802400004024049
:1007800080B500AF124B134A1A60114B124A5A60DF
:100790000F4B00229A600E4B0022DA600C4B4FF494
:1007A00080421A610A4B00225A61094B00229A6169
:1007B000074B0022DA61064B00221A62044801F05E
:1007C0004DF80346002B01D000F016F900BF80BDA4
:1007D0004403002000540040801A060080B58CB00D
:1007E00000AF786007F11C0300221A605A609A601B
:1007F000DA601A617B681B68424A93422CD100235D
:10080000BB61414B1B6B404A43F0020313633E4BF9
:100810001B6B03F00203BB61BB69C023FB611223A6
:100820003B6201237B620323BB620423FB6207F16B
:100830001C031946354800F04BFD00237B61324B09
:100840001B6C314A43F4001313642F4B1B6C03F4ED
:1008500000137B617B6950E07B681B682C4A9342E4
:100860004BD100233B61284B1B6B274A43F0040309
:100870001363254B1B6B03F004033B613B690023AF
:10088000FB60214B1B6B204A43F0010313631E4B9B
:100890001B6B03F00103FB60FB684FF40073FB610B
:1008A00012233B6201237B620323BB620423FB62AE
:1008B00007F11C031946174800F00AFD4FF4807336
:1008C000FB6112233B6201237B620323BB6204238F
:1008D000FB6207F11C0319460F4800F0F9FC0023E6
:1008E000BB60094B1B6C084A43F400031364064BBE
:1008F0001B6C03F40003BB60BB6800BF3037BD4610
:1009000080BD00BF00540040003802400004024097
:10091000005C0040000802400000024080B594B036
:1009200000AF07F120033022002118460CF0EAFF47
:1009300007F10C0300221A605A609A60DA601A61AB
:100940000023BB602A4B1B6C294A43F0805313647D
:10095000274B1B6C03F08053BB60BB6800237B609C
:10096000244B1B6823F44043224A43F400431360A2
:10097000204B1B6803F440437B607B6805233B628C
:100980004FF480337B620123BB620223BB634FF4CD
:100990008003FB6306233B64A8237B640423BB64BE
:1009A0000723FB6407F12003184602F01FFC0346EF
:1009B000002B01D000F020F80F23FB6002233B61E5
:1009C00000237B614FF48053BB610023FB6107F17F
:1009D0000C030221184602F031FF0346002B01D020
:1009E00000F00AF803F0B8F800BF5037BD4680BDEC
:1009F000003802400070004080B400AF72B600BF03
:100A0000FEE780B483B000AF7860396000BF0C3778
:100A1000BD465DF8047B704780B500AF174B184AA0
:100A20001A60164B4FF482725A60144B00229A607F
:100A3000124B0022DA60114B00221A610F4B002288
:100A40005A610E4B4FF400729A610C4B0822DA6126
:100A50000A4B00221A62094B00225A62074B0022FD
:100A60009A62064B0A22DA62044803F087F90346C9
:100A7000002B01D0FFF7C0FF00BF80BD980300200E
:100A8000003C004080B58CB000AF786007F11C03DB
:100A900000221A605A609A60DA601A617B681B68EB
:100AA000424A93422CD10023BB61414B5B6C404ACC
:100AB00043F4805353643E4B5B6C03F48053BB613F
:100AC000BB6900237B613A4B1B6B394A43F002033D
:100AD0001363374B1B6B03F002037B617B69382385
:100AE000FB6102233B6200237B620323BB6205237D
:100AF000FB6207F11C0319462E4800F0E9FB50E0A9
:100B00007B681B682C4A93424BD100233B61284BE6
:100B10001B6C274A43F400431364254B1B6C03F4FE
:100B200000433B613B690023FB60214B1B6B204A68
:100B300043F0010313631E4B1B6B03F00103FB60C7
:100B4000FB680023BB601A4B1B6B194A43F004037C
:100B50001363174B1B6B03F00403BB60BB684FF4BC
:100B60000043FB6102233B6200237B620323BB62E1
:100B70000623FB6207F11C031946104800F0A8FB8E
:100B80004FF4E053FB6102233B6200237B620323AB
:100B9000BB620623FB6207F11C031946084800F0FC
:100BA00097FB00BF3037BD4680BD00BF003001401D
:100BB0000038024000040240003C004000000240B7
:100BC0000008024080B483B000AF00237B60104B6C
:100BD0005B6C0F4A43F4804353640D4B5B6C03F42E
:100BE00080437B607B6800233B60094B1B6C084A99
:100BF00043F080531364064B1B6C03F080533B603F
:100C00003B6800BF0C37BD465DF8047B704700BFF2
:100C10000038024080B500AF03F094F8FEE780B4DE
:100C200000AFFEE780B400AFFEE780B400AFFEE7A0
:100C300080B400AFFEE780B400AF00BFBD465DF8F2
:100C4000047B704780B400AF00BFBD465DF8047BF5
:100C5000704780B400AF00BFBD465DF8047B7047AD
:100C600080B500AF00F0B0F900BF80BD80B500AF27
:100C7000024801F0A0FA00BF80BD00BFA00700201D
:100C800080B586B000AFF860B9607A6000237B6100
:100C90000AE00BF0ABFB0146BB685A1CBA60CAB253
:100CA0001A707B6901337B617A697B689A42F0DB59
:100CB0007B6818461837BD4680BD80B586B000AF4A
:100CC000F860B9607A6000237B6109E0BB685A1C58
:100CD000BA601B7818460BF06BFB7B6901337B61B4
:100CE0007A697B689A42F1DB7B6818461837BD4603
:100CF00080BD80B483B000AF78604FF0FF331846FA
:100D00000C37BD465DF8047B704780B483B000AFFC
:100D1000786039603B684FF400525A6000231846EF
:100D20000C37BD465DF8047B704780B483B000AFDC
:100D30007860012318460C37BD465DF8047B704788
:100D400080B485B000AFF860B9607A6000231846BF
:100D50001437BD465DF8047B7047000080B586B04F
:100D600000AF7860144A154BD31A7B617B693B61F5
:100D7000134B1B68002B02D1114B124A1A60104B07
:100D80001A687B6813443A699A4207D20CF052FB06
:100D900003460C221A604FF0FF3309E0084B1B6832
:100DA000FB60074B1A687B681344054A1360FB68B5
:100DB00018461837BD4680BD00000120000800001D
:100DC00034020020B80B002080B400AF064BD3F8EB
:100DD0008830054A43F47003C2F8883000BFBD462E
:100DE0005DF8047B704700BF00ED00E080B500AF08
:100DF000114B124A1A60104B4FF4E1325A600E4BFD
:100E000000229A600C4B0022DA600B4B00221A6120
:100E1000094B0C225A61084B00229A61064B0022B2
:100E2000DA61054803F03EF90346002B01D0FFF7D5
:100E3000E3FD00BF80BD00BF48040020001001405A
:100E400080B58AB000AF786007F1140300221A6001
:100E50005A609A60DA601A617B681B68194A93428B
:100E60002CD100233B61184B5B6C174A43F01003F5
:100E70005364154B5B6C03F010033B613B6900232B
:100E8000FB60114B1B6B104A43F0010313630E4BC5
:100E90001B6B03F00103FB60FB684FF4C0637B61D5
:100EA0000223BB610023FB6103233B6207237B62B8
:100EB00007F114031946054800F00AFA00BF283765
:100EC000BD4680BD001001400038024000000240D5
:100ED000DFF834D00D480E490E4A002302E0D45802
:100EE000C4500433C4188C42F9D30B4A0B4C002372
:100EF00001E013600432A242FBD3FFF765FF0CF060
:100F000057FC0AF095FE7047000001200000002009
:100F100018020020CCF6000818020020B80B0020B0
:100F2000FEE7000080B500AF0E4B1B680D4A43F48E
:100F3000007313600B4B1B680A4A43F48063136011
:100F4000084B1B68074A43F480731360032000F0CA
:100F50004FF9002000F008F8FFF734FE0023184690
:100F600080BD00BF003C024080B582B000AF786019
:100F7000124B1A68124B1B7819464FF47A73B3FB65
:100F8000F1F3B2FBF3F3184600F096F90346002B99
:100F900001D001230EE07B680F2B0AD8002279686C
:100FA0004FF0FF3000F044F9064A7B6813600023DD
:100FB00000E0012318460837BD4680BD0000002030
:100FC000080000200400002080B400AF064B1B780E
:100FD0001A46064B1B681344044A136000BFBD4603
:100FE0005DF8047B704700BF080000208C040020DF
:100FF00080B400AF034B1B681846BD465DF8047B08
:10100000704700BF8C04002080B584B000AF7860CA
:10101000FFF7EEFFB8607B68FB60FB68B3F1FF3F52
:1010200005D00A4B1B781A46FB681344FB6000BFCF
:10103000FFF7DEFF0246BB68D31AFA689A42F7D878
:1010400000BF00BF1037BD4680BD00BF08000020B4
:1010500080B485B000AF78607B6803F00703FB6065
:101060000C4BDB68BB60BA684FF6FF031340BB60F4
:10107000FB681A02BB68134343F0BF6343F40033B9
:10108000BB60044ABB68D36000BF1437BD465DF83F
:10109000047B704700ED00E080B400AF044BDB68D8
:1010A0001B0A03F007031846BD465DF8047B704732
:1010B00000ED00E080B483B000AF0346FB7197F908
:1010C0000730002B0BDBFB7903F01F02074997F970
:1010D00007305B09012000FA02F241F8232000BF2B
:1010E0000C37BD465DF8047B704700BF00E100E0AF
:1010F00080B483B000AF03463960FB7197F90730C5
:10110000002B0ADB3B68DAB20C4997F90730120171
:10111000D2B20B4483F800230AE03B68DAB20849F4
:10112000FB7903F00F03043B1201D2B20B441A7691
:1011300000BF0C37BD465DF8047B704700E100E05E
:1011400000ED00E080B489B000AFF860B9607A606B
:10115000FB6803F00703FB61FB69C3F10703042B82
:1011600028BF0423BB61FB690433062B02D9FB694A
:10117000033B00E000237B614FF0FF32BB6902FAC2
:1011800003F3DA43BB681A407B699A404FF0FF31A2
:101190007B6901FA03F3D9437B680B40134318467C
:1011A0002437BD465DF8047B7047000080B582B0EF
:1011B00000AF78607B68013BB3F1807F01D30123EE
:1011C0000FE00A4A7B68013B53600F214FF0FF306C
:1011D000FFF78EFF054B00229A60044B07221A602E
:1011E000002318460837BD4680BD00BF10E000E070
:1011F00080B582B000AF78607B68072B0FD07B682A
:10120000062B0CD07B68052B09D07B68042B06D0FD
:101210007B68032B03D092210448FFF7F2FB786828
:10122000FFF716FF00BF0837BD4680BDDCE40008AD
:1012300080B586B000AF0346B9607A60FB730023C7
:101240007B617B680F2B03D9AA210E48FFF7D9FBDE
:10125000BB680F2B03D9AB210A48FFF7D2FBFFF77E
:101260001BFF78617A68B9687869FFF76BFF0246FF
:1012700097F90F3011461846FFF73AFF00BF1837AD
:10128000BD4680BDDCE4000880B582B000AF0346F7
:10129000FB7197F90730002B03DABE210548FFF7F1
:1012A000B0FB97F907301846FFF704FF00BF083777
:1012B000BD4680BDDCE4000880B582B000AF786038
:1012C0007868FFF773FF034618460837BD4680BDB0
:1012D00080B588B000AF7860396000237B6100235F
:1012E0003B610023BB617B68334A934217D07B6824
:1012F000324A934213D07B68314A93420FD07B68C5
:10130000304A93420BD07B682F4A934207D07B68C8
:101310002E4A934203D0AC212D48FFF772FB3B6865
:101320001B689BB2002B05D03B681B681B0C1B0481
:10133000002B03D0AD212648FFF763FB3B685B68B9
:10134000002B35D03B685B68012B31D03B685B6874
:10135000112B2DD03B685B68022B29D03B685B6862
:10136000122B25D03B685B68B3F5881F20D03B6803
:101370005B68B3F5041F1BD03B685B68B3F5441F83
:1013800016D03B685B68B3F5901F11D03B685B6873
:10139000B3F5081F0CD03B685B68B3F5481F07D056
:1013A0003B685B68032B03D0AE210948FFF729FB9C
:1013B0000023FB6108E200BF00000240000402407D
:1013C00000080240000C024000100240001C0240D5
:1013D00018E500080122FB6902FA03F37B613B6810
:1013E0001B687A6913403B613A697B699A4240F015
:1013F000E8813B685B6803F00303012B05D03B6881
:101400005B6803F00303022B44D13B68DB68002BCD
:101410000FD03B68DB68012B0BD03B68DB68022BED
:1014200007D03B68DB68032B03D0C021A048FFF73F
:10143000E8FA7B689B68BB61FB695B00032202FAE8
:1014400003F3DB43BA691340BB613B68DA68FB69AD
:101450005B0002FA03F3BA691343BB617B68BA69A4
:101460009A607B685B68BB610122FB6902FA03F347
:10147000DB43BA691340BB613B685B681B0903F03F
:101480000102FB6902FA03F3BA691343BB617B688B
:10149000BA695A603B685B6803F00303032B27D0EB
:1014A0003B689B68002B0BD03B689B68012B07D0E7
:1014B0003B689B68022B03D0D1217D48FFF7A1FA3E
:1014C0007B68DB68BB61FB695B00032202FA03F304
:1014D000DB43BA691340BB613B689A68FB695B00F8
:1014E00002FA03F3BA691343BB617B68BA69DA6035
:1014F0003B685B6803F00303022B40F098803B6875
:101500001B69002B6FD03B681B690C2B6BD03B68B1
:101510001B69002B67D03B681B69002B63D03B68BD
:101520001B69002B5FD03B681B69002B5BD03B68BD
:101530001B69012B57D03B681B69012B53D03B68BB
:101540001B69022B4FD03B681B69022B4BD03B68B9
:101550001B69022B47D03B681B69032B43D03B68B8
:101560001B69032B3FD03B681B69032B3BD03B68B7
:101570001B69042B37D03B681B69042B33D03B68B5
:101580001B69042B2FD03B681B69052B2BD03B68B4
:101590001B69052B27D03B681B69052B23D03B68B3
:1015A0001B69062B1FD03B681B69072B1BD03B68B0
:1015B0001B69072B17D03B681B69082B13D03B68AE
:1015C0001B69092B0FD03B681B69092B0BD03B68AB
:1015D0001B690A2B07D03B681B690F2B03D0DE2148
:1015E0003348FFF70EFAFB69DA087B68083253F8D4
:1015F0002230BB61FB6903F007039B000F2202FA54
:1016000003F3DB43BA691340BB613B681A69FB69AA
:1016100003F007039B0002FA03F3BA691343BB61AB
:10162000FB69DA087B680832B96943F822107B68E5
:101630001B68BB61FB695B00032202FA03F3DB4317
:10164000BA691340BB613B685B6803F00302FB6946
:101650005B0002FA03F3BA691343BB617B68BA69A2
:101660001A603B685B6803F44033002B00F0A980EC
:101670000023FB600F4B5B6C0E4A43F480435364C2
:101680000C4B5B6C03F48043FB60FB680A4AFB690C
:101690009B08023352F82330BB61FB6903F003035C
:1016A0009B000F2202FA03F3DB43BA69134005E003
:1016B00018E500080038024000380140BB617B6833
:1016C000464A934219D07B68454A934213D07B68BF
:1016D000444A93420DD07B68434A934207D07B68CB
:1016E000424A934201D1042308E0072306E0032382
:1016F00004E0022302E0012300E00023FA6902F083
:10170000030292009340BA691343BB613849FB69F5
:101710009B080233BA6941F82320364B1B68BB6132
:101720003B69DB43BA691340BB613B685B6803F408
:101730008033002B03D0BA693B691343BB612D4A48
:10174000BB6913602B4B5B68BB613B69DB43BA69C8
:101750001340BB613B685B6803F40033002B03D08C
:10176000BA693B691343BB61224ABB695360214B91
:101770009B68BB613B69DB43BA691340BB613B6853
:101780005B6803F48013002B03D0BA693B691343F1
:10179000BB61184ABB699360164BDB68BB613B6950
:1017A000DB43BA691340BB613B685B6803F4001319
:1017B000002B03D0BA693B691343BB610D4ABB6977
:1017C000D360FB690133FB61FB690F2B7FF602AE2F
:1017D00000BF00BF2037BD4680BD00BF00000240F3
:1017E0000004024000080240000C024000100240C9
:1017F00000380140003C014080B582B000AF786005
:101800000B467B8013467B707B88002B04D07B8843
:101810001B0C1B04002B04D040F29D110E48FFF757
:10182000F0F87B78002B07D07B78012B04D04FF4A5
:10183000CF710948FFF7E5F87B78002B03D07A8851
:101840007B689A6103E07B881A047B689A6100BF19
:101850000837BD4680BD00BF18E5000880B584B0DC
:1018600000AF78607B68002B01D10123BEE17B686B
:101870001B689F4A93420ED07B681B689D4A934227
:1018800009D07B681B689C4A934204D040F2BF1188
:101890009A48FFF7B6F87B685B68002B04D07B683A
:1018A0005B68974A934204D94FF4E0719348FFF77D
:1018B000A8F87B689B68002B09D07B689B68B3F510
:1018C000804F04D040F2C1118C48FFF79AF87B6832
:1018D000DB6823F47F7323F00303002B04D04FF461
:1018E000E1718648FFF78DF87B681B69B3F5804F7F
:1018F00009D07B681B69B3F5404F04D040F2C31197
:101900007E48FFF77EF87B685B69002B08D07B6818
:101910005B69012B04D04FF4E2717848FFF771F84E
:101920007B689B6923F0FE03002B04D040F2C511B5
:101930007248FFF766F87B68DB69002B08D07B688C
:10194000DB69402B04D04FF4E3716C48FFF759F882
:101950007B681B6A002B08D07B681B6A802B04D035
:1019600040F2C7116548FFF74CF87B6893F83D30AB
:10197000DBB2002B06D17B68002283F83C2078681C
:10198000FEF72CFF7B68242283F83D207B681B68D0
:101990001A687B681B6822F001021A607B681B686A
:1019A0001A687B681B6842F400421A607B681B68F7
:1019B0001A687B681B6822F400421A6002F09AF9E8
:1019C000F8607B685B684F4A934207D8FB684E4AD1
:1019D000934294BF01230023DBB206E0FB684B4A2D
:1019E000934294BF01230023DBB2002B01D00123DB
:1019F000FCE0FB68464AA2FB03239B0CBB607B68B0
:101A00001B685B6823F03F017B681B68BA680A4368
:101A10005A607B681B681B6A23F03F017B685B6828
:101A2000384A934202D8BB68013309E0BB684FF4DF
:101A3000967202FB03F3374AA2FB03239B0901338F
:101A40007A6812680B4313627B681B68DB6923F4B6
:101A50004F4222F0FF027B685B682A498B4219D80B
:101A6000FB68591E7B685B685B00B1FBF3F3591C94
:101A700040F6FC730B40002B0AD0FB68591E7B68B4
:101A80005B685B00B1FBF3F30133C3F30B0366E068
:101A9000042364E07B689B68002B11D1FB68581E0F
:101AA0007B6859680B465B000B44B0FBF3F30133D2
:101AB000C3F30B03002B0CBF01230023DBB212E0A6
:101AC000FB68581E7B6859680B469B000B449900C5
:101AD0000B44B0FBF3F30133C3F30B03002B0CBF38
:101AE00001230023DBB2002B16D0012337E000BF17
:101AF0000054004000580040005C004054E50008DD
:101B0000801A0600A08601007F841E00FF083D00A9
:101B100083DE1B43D34D62107B689B68002B0ED184
:101B2000FB68581E7B6859680B465B000B44B0FB92
:101B3000F3F30133C3F30B0343F400430FE0FB68FB
:101B4000581E7B6859680B469B000B4499000B4458
:101B5000B0FBF3F30133C3F30B0343F44043796861
:101B600009681343CB617B681B681B6823F0C001C5
:101B70007B68DA697B681B6A1A437B681B680A43C7
:101B80001A607B681B689B6823F4034323F0FF0300
:101B90007A6811697A68D26811437A6812680B43CF
:101BA00093607B681B68DB6823F0FF017B685A69E0
:101BB0007B689B691A437B681B680A43DA607B6811
:101BC0001B681A687B681B6842F001021A607B6818
:101BD00000221A647B68202283F83D207B68002263
:101BE0001A637B68002283F83E20002318461037D2
:101BF000BD4680BD80B58AB002AFF8607A603B60B8
:101C00000B467B81FFF7F4F9F8610123BB61FB68A8
:101C100093F83D30DBB2202B40F01181FB6900933B
:101C2000192301228849F86800F012F90346002BB5
:101C300001D0022304E1FB6893F83C30012B01D171
:101C40000223FDE0FB68012283F83C20FB681B684F
:101C50001B6803F00103012B07D0FB681B681A689F
:101C6000FB681B6842F001021A60FB681B681A6877
:101C7000FB681B6822F400621A60FB68242283F868
:101C80003D20FB6800221A64FB68704ADA62FB6838
:101C90001B681A68FB681B6842F480721A60FB6953
:101CA00000933B6800224FF00111F86800F0D0F873
:101CB0000346002B0DD0FB681B681B6803F4807380
:101CC000B3F5807F03D1FB684FF400721A640323DD
:101CD000B6E07B89DBB21A46FB681B6802F0FE02A5
:101CE0001A61FFF785F9F861FB681B685B6903F00F
:101CF0000203022B0CBF01230023DBB2FB75FB6840
:101D00001B685B6903F48063B3F5806F0CBF01232C
:101D10000023DBB2BB7525E0FFF76AF90246FB69D9
:101D2000D31A3A689A4202D33B68002B03D1FB686E
:101D3000A02283F83D20FB681B685B6903F0020367
:101D4000022B0CBF01230023DBB2FB75FB681B6871
:101D50005B6903F48063B3F5806F0CBF012300233C
:101D6000DBB2BB75FB6893F83D30DBB2A02B05D02E
:101D7000FB7D002B02D1BB7D002BCDD0FB68202248
:101D800083F83D20FB681B685B6903F00203022BAC
:101D900029D1FB681B681A68FB681B6842F4007253
:101DA0001A6000233B61FB681B685B693B61FB6851
:101DB0001B689B693B613B69FB6900931923012206
:101DC0002149F86800F044F80346002B01D00123B4
:101DD00036E0FB68202283F83D20FB68002283F870
:101DE0003C2000232CE0FB681B681A68FB681B681A
:101DF00042F400721A60FB681B686FF480625A61DB
:101E0000FB690093192301220F49F86800F020F8BC
:101E10000346002B01D0012312E0BB690133BB61F3
:101E2000BA697B689A42FFF432AFFB68202283F8DC
:101E30003D20FB68002283F83C20012300E00223C0
:101E400018462037BD4680BD020010000000FFFF8D
:101E500080B584B000AFF860B9603B601346FB7199
:101E600025E03B68B3F1FF3F21D0FFF7C1F8024600
:101E7000BB69D31A3A689A4202D33B68002B16D149
:101E8000FB6800221A63FB68202283F83D20FB6870
:101E9000002283F83E20FB681B6C43F02002FB68A5
:101EA0001A64FB68002283F83C20012323E0BB680E
:101EB0001B0CDBB2012B0DD1FB681B685B69DA439D
:101EC000BB6813409BB2002B0CBF01230023DBB285
:101ED0001A460CE0FB681B689B69DA43BB68134039
:101EE0009BB2002B0CBF01230023DBB21A46FB7907
:101EF0009A42B6D0002318461037BD4680BD000078
:101F0000F0B58FB00AAF78607B68002B01D1012358
:101F100018E17B681B68B3F1A04F03D087218B4881
:101F2000FEF76FFD7B681B68BB607B6893F8BD3371
:101F3000DBB2002B06D17B68002283F8BC237868D3
:101F400005F0DCFD7B68032283F8BD23BB68DB6BF7
:101F500003F48073002B02D17B6800221A617B6836
:101F60001B68184602F015FE7B681B683B607E68A4
:101F70006D4606F110040FCC0FC50FCC0FC594E8C9
:101F8000030085E80300331D0ECB386802F0ECFC3B
:101F90000346002B05D07B68022283F8BD23012372
:101FA000D0E07B681B680021184602F003FE002386
:101FB000FB734AE0FA7B79681346DB009B1A9B00AF
:101FC0000B443D3301221A70FA7B79681346DB001B
:101FD0009B1A9B000B443C33FA7B1A70FA7BFB7B09
:101FE00098B279681346DB009B1A9B000B4442337E
:101FF00002461A80FA7B79681346DB009B1A9B0025
:102000000B443F3300221A70FA7B79681346DB00D9
:102010009B1A9B000B44443300221A60FA7B7968B8
:102020001346DB009B1A9B000B44483300221A60C6
:10203000FA7B79681346DB009B1A9B000B445033F4
:1020400000221A60FB7B0133FB73FA7B7B685B68C1
:102050009A42AFD30023FB7344E0FA7B79681346BE
:10206000DB009B1A9B000B4403F2FD1300221A7045
:10207000FA7B79681346DB009B1A9B000B4403F53F
:10208000FE73FA7B1A70FA7B79681346DB009B1AA1
:102090009B000B4403F2FF1300221A70FA7B79684D
:1020A0001346DB009B1A9B000B4403F501730022CF
:1020B0001A60FA7B79681346DB009B1A9B000B447D
:1020C00003F5027300221A60FA7B79681346DB007D
:1020D0009B1A9B000B4403F5047300221A60FB7BE0
:1020E0000133FB73FA7B7B685B689A42B5D37B68EC
:1020F0001B683B607E686D4606F110040FCC0FC56F
:102100000FCC0FC594E8030085E80300331D0ECB08
:10211000386802F09BFD0346002B05D07B68022245
:1021200083F8BD2301230DE07B68002283F838206B
:102130007B68012283F8BD237B681B68184603F087
:1021400017FE002318461437BD46F0BD8CE5000885
:1021500080B584B000AF78607B681B68FB607B68EB
:1021600093F8BC33012B01D1022320E07B680122CC
:1021700083F8BC237B689B6A012B09D17B689B6930
:10218000012B05D0FB689B6B43F48032FB689A639C
:102190007B681B68184602F0EBFC7B681B681846DE
:1021A00003F0C5FD7B68002283F8BC23002318469A
:1021B0001037BD4680BD90B58DB000AF78607B68AC
:1021C0001B683B623B6AFB617B681B68184603F037
:1021D00083FE0346002B40F09D837B681B681846F6
:1021E00003F0E7FD0346002B00F093837B681B6838
:1021F000184603F0DEFD034603F00203022B07D16D
:102200007B681B685A697B681B6802F002025A618E
:102210007B681B68184603F0CCFD034603F01003EF
:10222000102B61D17B681B689A697B681B6822F060
:1022300010029A613B6A1B6ABB61BB6903F00F0223
:102240001346DB009B1A9B0003F5FC737A6813446A
:1022500004337B61BB695B0C03F00F03022B24D1B9
:10226000BA6947F6F0731340002B35D07B69D96803
:10227000BB691B099BB2C3F30A039BB21A46386AB7
:1022800003F003FC7B69DA68BB691B09C3F30A032B
:102290001A447B69DA607B699A69BB691B09C3F3DD
:1022A0000A031A447B699A6116E0BB695B0C03F070
:1022B0000F03062B10D17B6803F5717308221946B2
:1022C000386A03F0E2FB7B699A69BB691B09C3F3B7
:1022D0000A031A447B699A617B681B689A697B6868
:1022E0001B6842F010029A617B681B68184603F075
:1022F00060FD034603F40023B3F5002F6ED10023E5
:102300007B627B681B68184603F066FDB86262E07A
:10231000BB6A03F00103002B57D07B681B687A6A05
:10232000D2B21146184603F08BFD38613B6903F0C9
:102330000103002B0CD07B6A5A01FB69134403F59F
:1023400030631A4601239360796A786800F098FD3B
:102350003B6903F00803002B0CD07B6A5A01FB6930
:10236000134403F530631A4608239360796A78684A
:1023700000F092FE3B6903F01003002B08D07B6A4B
:102380005A01FB69134403F530631A461023936026
:102390003B6903F02003002B08D07B6A5A01FB69DC
:1023A000134403F530631A46202393603B6903F41A
:1023B0000053002B09D07B6A5A01FB69134403F5D3
:1023C00030631A464FF4005393607B6A01337B629B
:1023D000BB6A5B08BB62BB6A002B99D17B681B6838
:1023E000184603F0E6FC034603F48023B3F5802F80
:1023F00040F0C0807B681B68184603F007FDB86298
:1024000000237B62B2E0BB6A03F00103002B00F003
:10241000A7807B681B687A6AD2B21146184603F01F
:102420002DFD38613B6903F00103002B57D07B6A17
:1024300003F00F03012202FA03F3FB60FB6903F5CB
:1024400000635A6BFB68DB43F96901F500611340D7
:102450004B637B6A5A01FB69134403F510631A4608
:10246000012393607B681B69012B32D179687A6AFA
:102470001346DB009B1A9B000B44483319687868AD
:102480007A6A1346DB009B1A9B00034444331B68A3
:10249000194478687A6A1346DB009B1A9B00034450
:1024A000483319607B6A002B13D179687A6A134626
:1024B000DB009B1A9B000B4450331B68002B08D198
:1024C0007B6818687B6803F571731A46012103F075
:1024D00035FD7B6ADBB21946786805F090FB3B69F5
:1024E00003F00803002B08D07B6A5A01FB691344F0
:1024F00003F510631A46082393603B6903F0100349
:10250000002B08D07B6A5A01FB69134403F5106362
:102510001A46102393603B6903F04003002B08D058
:102520007B6A5A01FB69134403F510631A46402382
:1025300093603B6903F00203002B08D07B6A5A01C9
:10254000FB69134403F510631A46022393603B6949
:1025500003F08003002B03D0796A786800F003FC55
:102560007B6A01337B62BB6A5B08BB62BB6A002B80
:102570007FF449AF7B681B68184603F01AFC0346DA
:1025800003F00043B3F1004F22D1FB6903F5006370
:102590005B68FA6902F5006223F0010353607B680F
:1025A00093F8F433012B08D17B68002283F8F423DD
:1025B0000021786800F00EFE02E0786805F08CFBE0
:1025C0007B681B685A697B681B6802F000425A618D
:1025D0007B681B68184603F0ECFB034603F40063BA
:1025E000B3F5006F12D1FB6903F500639B6803F03C
:1025F0000103012B02D1786805F048FB7B681B685A
:102600005A697B681B6802F400625A617B681B6828
:10261000184603F0CEFB034603F48053B3F5805F06
:1026200040F0C780FB6903F500635B68FA6902F557
:10263000006223F0010353607B681B681021184679
:1026400002F068FC0023FB6256E0FB6A5A01FB695A
:10265000134403F510631A464FF67F339360FB6A09
:102660005A01FB69134403F510631B68FA6A5101B0
:10267000FA690A4402F5106223F400131360FB6A3E
:102680005A01FB69134403F510631B68FA6A510190
:10269000FA690A4402F5106243F000631360FB6AB2
:1026A0005A01FB69134403F530631A464FF67F3332
:1026B0009360FB6A5A01FB69134403F530631B689E
:1026C000FA6A5101FA690A4402F5306223F40013F0
:1026D0001360FB6A5A01FB69134403F530631B68FE
:1026E000FA6A5101FA690A4402F5306243F0006364
:1026F0001360FB6A0133FB627B685B68FA6A9A428B
:10270000A3D3FB6903F50063DB69FA6902F5006294
:1027100043F00113D3617B681B6B002B16D0FB6960
:1027200003F50063D3F88430FA6902F5006243F0E0
:102730000B03C2F88430FB6903F500635B6CFA6934
:1027400002F5006243F00B03536415E0FB6903F5E7
:1027500000635B69FA6902F5006243F4005343F0D9
:102760002B035361FB6903F500631B69FA6902F5EA
:10277000006243F00B031361FB6903F500631B6800
:10278000FA6902F5006223F4FE6313607B6818683F
:102790007B681B69D9B27B6803F571731A4603F035
:1027A000CDFB7B681B685A697B681B6802F480520A
:1027B0005A617B681B68184603F0FBFA034603F472
:1027C0000053B3F5005F24D17B681B68184603F003
:1027D00091FB7B681B68184602F0F9FB03461A461A
:1027E0007B68DA607B681C6801F078FA01467B68D8
:1027F000DB68DBB21A46204602F018F9786805F06B
:1028000026FA7B681B685A697B681B6802F40052D1
:102810005A617B681B68184603F0CBFA034603F045
:102820000803082B0AD1786805F003FA7B681B6857
:102830005A697B681B6802F008025A617B681B6852
:10284000184603F0B6FA034603F48013B3F5801F6D
:102850000FD100237B627B6ADBB21946786805F0F2
:102860005BFA7B681B685A697B681B6802F48012FC
:102870005A617B681B68184603F09BFA034603F411
:102880000013B3F5001F0FD100237B627B6ADBB21C
:102890001946786805F02EFA7B681B685A697B68D0
:1028A0001B6802F400125A617B681B68184603F02B
:1028B00080FA034603F08043B3F1804F0AD1786871
:1028C00005F03CFA7B681B685A697B681B6802F05C
:1028D00080425A617B681B68184603F06AFA034617
:1028E00003F00403042B15D17B681B685B68BB6194
:1028F000BB6903F00403002B02D0786805F02CFAC2
:102900007B681B6859687B681B68BA690A435A6010
:1029100000E000BF3437BD4690BD80B582B000AF47
:1029200078600B46FB707B6893F8BC33012B01D1B8
:10293000022313E07B68012283F8BC237B68FA78CA
:1029400083F838207B681B68FA781146184603F034
:10295000C8F97B68002283F8BC2300231846083797
:10296000BD4680BD80B584B000AF78600846114692
:102970001A460346FB700B463B801346BB70002390
:10298000FB7297F90330002B0FDAFB7803F00F028C
:102990001346DB009B1A9B0038337A6813440433D8
:1029A000FB60FB6801225A700FE0FB7803F00F0216
:1029B0001346DB009B1A9B0003F5FC737A681344F3
:1029C0000433FB60FB6800225A70FB7803F00F03AE
:1029D000DAB2FB681A703A88FB689A60FB68BA78CA
:1029E000DA70FB685B78002B04D0FB681B789AB226
:1029F000FB68DA80BB78022B02D1FB6800221A71D7
:102A00007B6893F8BC33012B01D102230EE07B6875
:102A1000012283F8BC237B681B68F968184602F022
:102A2000FBFA7B68002283F8BC23FB7A1846103738
:102A3000BD4680BD80B584B000AF78600B46FB70AA
:102A400097F90330002B0FDAFB7803F00F021346DF
:102A5000DB009B1A9B0038337A6813440433FB6015
:102A6000FB6801225A700FE0FB7803F00F02134657
:102A7000DB009B1A9B0003F5FC737A681344043354
:102A8000FB60FB6800225A70FB7803F00F03DAB298
:102A9000FB681A707B6893F8BC33012B01D10223C9
:102AA0000EE07B68012283F8BC237B681B68F96811
:102AB000184602F039FB7B68002283F8BC23002310
:102AC00018461037BD4680BD80B586B000AFF860AF
:102AD0007A603B600B46FB72FB7A03F00F021346F1
:102AE000DB009B1A9B0003F5FC73FA681344043364
:102AF0007B617B697A68DA607B693A685A617B69D5
:102B000000229A617B6900225A70FB7A03F00F035E
:102B1000DAB27B691A70FB681B69012B02D17A68F3
:102B20007B691A61FB7A03F00F03002B09D1FB6864
:102B30001868FB681B69DBB21A46796902F014FE5B
:102B400008E0FB681868FB681B69DBB21A46796904
:102B500002F0C6FB002318461837BD4680BD80B57D
:102B600086B000AFF8607A603B600B46FB72FB7A80
:102B700003F00F021346DB009B1A9B003833FA6800
:102B8000134404337B617B697A68DA607B693A6855
:102B90005A617B6900229A617B6901225A70FB7A33
:102BA00003F00F03DAB27B691A70FB681B69012B13
:102BB00002D17A687B691A61FB7A03F00F03002B5C
:102BC00009D1FB681868FB681B69DBB21A46796992
:102BD00002F0CAFD08E0FB681868FB681B69DBB2FD
:102BE0001A46796902F07CFB002318461837BD4667
:102BF00080BD80B584B000AF78600B46FB70FB7879
:102C000003F00F027B685B689A4201D9012350E010
:102C100097F90330002B0FDAFB7803F00F0213460D
:102C2000DB009B1A9B0038337A6813440433FB6043
:102C3000FB6801225A700DE0FA781346DB009B1AFC
:102C40009B0003F5FC737A6813440433FB60FB6854
:102C500000225A70FB6801229A70FB7803F00F0380
:102C6000DAB2FB681A707B6893F8BC33012B01D190
:102C700002231EE07B68012283F8BC237B681B686B
:102C8000F968184602F059FFFB7803F00F03002B98
:102C90000AD17B6818687B681B69D9B27B6803F529
:102CA00071731A4603F04AF97B68002283F8BC234B
:102CB000002318461037BD4680BD80B584B000AFF4
:102CC00078600B46FB70FB7803F00F027B685B6853
:102CD0009A4201D9012342E097F90330002B0FDA21
:102CE000FB7803F00F021346DB009B1A9B0038337E
:102CF0007A6813440433FB60FB6801225A700FE0CA
:102D0000FB7803F00F021346DB009B1A9B0003F5D0
:102D1000FC737A6813440433FB60FB6800225A702A
:102D2000FB6800229A70FB7803F00F03DAB2FB68AD
:102D30001A707B6893F8BC33012B01D102230EE09B
:102D40007B68012283F8BC237B681B68F9681846FE
:102D500002F061FF7B68002283F8BC230023184641
:102D60001037BD4680BD80B58AB002AF786039604B
:102D70007B681B687B617B693B613A681346DB00BB
:102D80009B1A9B0038337A6813440433FB60FB685A
:102D90009A69FB685B699A4201D901236CE0FB6880
:102DA0005A69FB689B69D31AFB61FB689B68FA69E7
:102DB0009A4202D9FB689B68FB61FB6903339B085D
:102DC000BB612BE0FB685A69FB689B69D31AFB6106
:102DD000FB689B68FA699A4202D9FB689B68FB61B1
:102DE000FB6903339B08BB61FB68D9683B68DAB2B7
:102DF000FB6998B27B681B69DBB200930346786974
:102E000002F005FEFB68DA68FB691A44FB68DA60C9
:102E1000FB689A69FB691A44FB689A613B685A012E
:102E20003B69134403F510639B699BB2BA699A42EC
:102E300009D8FB689A69FB685B699A4203D2FB6810
:102E40005B69002BBED1FB685A69FB689B699A429B
:102E500011D83B6803F00F03012202FA03F3BB60B1
:102E60003B6903F500635A6BBB68DB43396901F5C5
:102E7000006113404B63002318462037BD4680BDD8
:102E800080B586B000AF786039607B681B687B6175
:102E90007B693B617B693C3304331B68FB603B68A7
:102EA0005A013B69134403F530639B68BB607B6840
:102EB0001B69012B40F0A080BB6803F00803002BC6
:102EC00015D0FB68724A934240F2DD80BB6803F480
:102ED0000043002B00F0D7803B685A013B69134444
:102EE00003F530631A464FF400439360CBE0BB68B0
:102EF00003F02003002B09D03B685A013B691344BF
:102F000003F530631A4620239360BCE0BB6803F0EE
:102F10002803002B40F0B780FB685D4A93420FD92D
:102F2000BB6803F40043002B0AD03B685A013B699D
:102F3000134403F530631A464FF400439360A2E054
:102F400079683A681346DB009B1A9B000B4403F533
:102F500001731A683B6859013B690B4403F5306300
:102F60001B69C3F31203D11A78683A681346DB0071
:102F70009B1A9B00034403F50573196079683A684E
:102F80001346DB009B1A9B000B4403F50273196880
:102F900078683A681346DB009B1A9B00034403F5EC
:102FA00001731B68194478683A681346DB009B1A62
:102FB0009B00034403F5027319603B68002B14D196
:102FC00079683A681346DB009B1A9B000B4403F5B3
:102FD00004731B68002B08D17B6818687B6803F5B5
:102FE00071731A46012102F0A9FF3B68DBB2194652
:102FF000786804F0E9FD46E0FB68264A934224D154
:10300000BB6803F40043002B0AD03B685A013B69BC
:10301000134403F530631A464FF40043936032E0E3
:10302000BB6803F02003002B08D03B685A013B69C2
:10303000134403F530631A46202393603B68DBB2E8
:103040001946786804F0C0FD1DE03B68002B14D1E0
:1030500079683A681346DB009B1A9B000B4403F522
:1030600004731B68002B08D17B6818687B6803F524
:1030700071731A46002102F061FF3B68DBB219460A
:10308000786804F0A1FD002318461837BD4680BDBE
:103090000A30544F0A31544F80B586B000AF786083
:1030A00039607B681B687B617B693B617B693C3372
:1030B00004331B68FB603B685A013B69134403F50A
:1030C00030639B68BB60FB68154A93420ED9BB68AE
:1030D00003F40043002B09D03B685A013B691344B9
:1030E00003F530631A464FF400439360786804F0A8
:1030F00059FDFB680A4A93420CD97B681B69012B76
:1031000008D17B6818687B6803F571731A46012142
:1031100002F014FF002318461837BD4680BD00BFDB
:103120000A30544F80B485B000AF78600B46FB7016
:1031300013463B807B681B685B6ABB60FB78002B97
:1031400007D13B8819047B681B68BA680A439A62F6
:1031500028E07B681B689B6A1B0CBA681344BB6041
:103160000023FB730DE07B681A68FB7B40339B00F8
:1031700013445B681B0CBA681344BB60FB7B0133D0
:10318000FB73FA7BFB78013B9A42ECD33B88180433
:103190007B681968FB78013BBA68024340339B00A7
:1031A0000B445A60002318461437BD465DF8047B73
:1031B000704780B483B000AF78600B467B807B683B
:1031C0001B687A885A62002318460C37BD465DF8A2
:1031D000047B704780B483B000AF78600B46FB700F
:1031E00000BF0C37BD465DF8047B704780B586B0E4
:1031F00000AF78607B68002B01D1012316E37B6868
:103200001B680F2B03D9E821A348FDF7FAFB7B6865
:103210001B6803F00103002B00F088807B685B686B
:10322000002B0DD07B685B68B3F5803F08D07B68CE
:103230005B68B3F5A02F03D0ED219748FDF7E1FBC4
:10324000964B9B6803F00C03042B0CD0934B9B68AC
:1032500003F00C03082B12D1904B5B6803F480033E
:10326000B3F5800F0BD18D4B1B6803F40033002B9B
:103270005BD07B685B68002B57D10123D6E27B686B
:103280005B68B3F5803F06D1844B1B68834A43F4E7
:10329000803313601DE07B685B68B3F5A02F0CD111
:1032A0007E4B1B687D4A43F4802313607B4B1B6875
:1032B0007A4A43F4803313600BE0784B1B68774AFB
:1032C00023F480331360754B1B68744A23F4802306
:1032D00013607B685B68002B13D0FDF789FE3861B3
:1032E00008E0FDF785FE02463B69D31A642B01D93D
:1032F00003239BE2694B1B6803F40033002BF0D0DF
:1033000014E0FDF775FE386108E0FDF771FE024636
:103310003B69D31A642B01D9032387E25F4B1B68F7
:1033200003F40033002BF0D100E000BF7B681B6882
:1033300003F00203002B79D07B68DB68002B08D0F8
:103340007B68DB68012B04D040F21F115248FDF767
:1033500058FB7B681B691F2B04D94FF490714E48B2
:10336000FDF74FFB4D4B9B6803F00C03002B0BD07C
:103370004A4B9B6803F00C03082B1CD1474B5B683E
:1033800003F48003002B16D1444B1B6803F00203A7
:10339000002B05D07B68DB68012B01D0012345E2BF
:1033A0003E4B1B6823F0F8027B681B69DB003B493E
:1033B00013430B603AE07B68DB68002B20D0384B6E
:1033C00001221A60FDF714FE386108E0FDF710FED7
:1033D00002463B69D31A022B01D9032326E22F4B65
:1033E0001B6803F00203002BF0D02C4B1B6823F06A
:1033F000F8027B681B69DB00284913430B6015E06A
:10340000274B00221A60FDF7F3FD386108E0FDF755
:10341000EFFD02463B69D31A022B01D9032305E2D3
:103420001E4B1B6803F00203002BF0D17B681B6866
:1034300003F00803002B46D07B685B69002B08D0A3
:103440007B685B69012B04D04FF4B0711248FDF723
:10345000D8FA7B685B69002B16D0124B01221A60E8
:10346000FDF7C6FD386108E0FDF7C2FD02463B6985
:10347000D31A022B01D90323D8E1084B5B6F03F069
:103480000203002BF0D01EE0064B00221A60FDF76D
:10349000AFFD386111E000BFC4E50008003802400C
:1034A00000004742800E4742FDF7A2FD02463B69FD
:1034B000D31A022B01D90323B8E1974B5B6F03F0BA
:1034C0000203002BF0D17B681B6803F00403002B80
:1034D00000F0A8800023FB757B689B68002B0CD054
:1034E0007B689B68012B08D07B689B68052B04D008
:1034F0004FF4C6718948FDF784FA874B1B6C03F0C3
:103500008053002B0FD10023BB60834B1B6C824A7E
:1035100043F080531364804B1B6C03F08053BB60FB
:10352000BB680123FB757E4B1B6803F48073002B83
:1035300018D17B4B1B687A4A43F480731360FDF704
:1035400057FD386108E0FDF753FD02463B69D31A89
:10355000022B01D9032369E1714B1B6803F48073CB
:10356000002BF0D07B689B68012B06D16A4B1B6F48
:10357000694A43F0010313671CE07B689B68052BD5
:103580000CD1654B1B6F644A43F004031367624B15
:103590001B6F614A43F0010313670BE05E4B1B6F27
:1035A0005D4A23F0010313675B4B1B6F5A4A23F0FC
:1035B000040313677B689B68002B15D0FDF718FD8B
:1035C00038610AE0FDF714FD02463B69D31A41F267
:1035D0008832934201D9032328E14F4B1B6F03F03C
:1035E0000203002BEED014E0FDF702FD38610AE083
:1035F000FDF7FEFC02463B69D31A41F28832934242
:1036000001D9032312E1444B1B6F03F00203002B8B
:10361000EED1FB7D012B05D13F4B1B6C3E4A23F0C5
:10362000805313647B689B69002B0CD07B689B697B
:10363000012B08D07B689B69022B04D040F2CF118C
:103640003648FDF7DEF97B689B69002B00F0ED80C2
:10365000314B9B6803F00C03082B00F0AE807B68B5
:103660009B69022B40F092807B68DB69002B09D0BC
:103670007B68DB69B3F5800F04D04FF4EC71274809
:10368000FDF7BFF97B681B6A3F2B04D940F2D911C3
:103690002248FDF7B6F97B685B6A312B04D97B6859
:1036A0005B6AB3F5D87F04D94FF4ED711B48FDF781
:1036B000A8F97B689B6A022B10D07B689B6A042B5D
:1036C0000CD07B689B6A062B08D07B689B6A082B12
:1036D00004D040F2DB111148FDF793F97B68DB6AF7
:1036E000012B03D97B68DB6A0F2B04D94FF4EE71F1
:1036F0000A48FDF786F90B4B00221A60FDF778FCAB
:10370000386111E0FDF774FC02463B69D31A022BC5
:103710000AD903238AE000BF00380240C4E500084C
:103720000070004060004742424B1B6803F000738A
:10373000002BE7D17B68DA697B681B6A1A437B68D8
:103740005B6A9B011A437B689B6A5B08013B1B0415
:103750001A437B68DB6A1B06364913434B60364BC2
:1037600001221A60FDF744FC386108E0FDF740FCD7
:1037700002463B69D31A022B01D9032356E02D4B95
:103780001B6803F00073002BF0D04EE02A4B0022A0
:103790001A60FDF72DFC386108E0FDF729FC0246B0
:1037A0003B69D31A022B01D903233FE0214B1B684D
:1037B00003F00073002BF0D137E07B689B69012B8D
:1037C00001D1012332E01B4B5B68FB607B689B6986
:1037D000012B28D0FB6803F480027B68DB699A42E6
:1037E00021D1FB6803F03F027B681B6A9A421AD121
:1037F000FA6847F6C07313407A68526A920193429E
:1038000011D1FB6803F440327B689B6A5B08013B83
:103810001B049A4207D1FB6803F070627B68DB6A85
:103820001B069A4201D0012300E0002318461837F6
:10383000BD4680BD003802406000474280B584B07C
:1038400000AF786039607B68002B01D1012374E1FF
:103850007B681B68002B03D07B681B680F2B04D987
:103860004FF417717B48FDF7CCF83B68002B19D05B
:103870003B68012B16D03B68022B13D03B68032B0F
:1038800010D03B68042B0DD03B68052B0AD03B6859
:10389000062B07D03B68072B04D040F25D216D4812
:1038A000FDF7AFF86C4B1B6803F007033A689A42C8
:1038B0000CD9694B3A68D2B21A70674B1B6803F097
:1038C00007033A689A4201D0012336E17B681B68FE
:1038D00003F00203002B49D07B681B6803F004034C
:1038E000002B05D05D4B9B685C4A43F4E05393602A
:1038F0007B681B6803F00803002B05D0574B9B68BF
:10390000564A43F4604393607B689B68002B24D045
:103910007B689B68802B20D07B689B68902B1CD099
:103920007B689B68A02B18D07B689B68B02B14D059
:103930007B689B68C02B10D07B689B68D02B0CD019
:103940007B689B68E02B08D07B689B68F02B04D0D9
:103950004FF420713F48FDF754F8404B9B6823F02B
:10396000F0027B689B683D4913438B607B681B6852
:1039700003F00103002B59D07B685B68002B10D04B
:103980007B685B68012B0CD07B685B68022B08D0DE
:103990007B685B68032B04D040F287212D48FDF73C
:1039A00030F87B685B68012B07D12C4B1B6803F454
:1039B0000033002B19D10123BFE07B685B68022B29
:1039C00003D07B685B68032B07D1244B1B6803F093
:1039D0000073002B09D10123AFE0204B1B6803F0DB
:1039E0000203002B01D10123A7E01C4B9B6823F0AD
:1039F00003027B685B68194913438B60FDF7F8FA93
:103A0000F8600AE0FDF7F4FA0246FB68D31A41F2C7
:103A10008832934201D903238FE0104B9B6803F057
:103A20000C027B685B689B009A42EBD10A4B1B68D7
:103A300003F007033A689A4212D2074B3A68D2B2AF
:103A40001A70054B1B6803F007033A689A4207D0C7
:103A5000012372E0C4E50008003C02400038024047
:103A60007B681B6803F00403002B25D07B68DB68B0
:103A7000002B18D07B68DB68B3F5805F13D07B68C0
:103A8000DB68B3F5A05F0ED07B68DB68B3F5C05F81
:103A900009D07B68DB68B3F5E05F04D040F2C52154
:103AA0002848FCF7AEFF284B9B6823F4E0527B6864
:103AB000DB68254913438B607B681B6803F00803B0
:103AC000002B26D07B681B69002B18D07B681B69F4
:103AD000B3F5805F13D07B681B69B3F5A05F0ED090
:103AE0007B681B69B3F5C05F09D07B681B69B3F5C0
:103AF000E05F04D04FF433711248FCF782FF124BA1
:103B00009B6823F460427B681B69DB000E4913430A
:103B10008B6000F02DF802460B4B9B681B0903F0ED
:103B20000F030A49CB5C22FA03F3094A1360094BDD
:103B30001B681846FDF718FA002318461037BD46D3
:103B400080BD00BFC4E5000800380240B0F00008A6
:103B5000000000200400002080B400AF034B0122CD
:103B60001A6000BFBD465DF8047B70474C004742B9
:103B7000B0B584B000AF002179600021F960002168
:103B800039600021B9605249896801F00C010829A7
:103B90000DD0082900F29480002902D0042903D016
:103BA0008EE04C4BBB608EE04B4BBB608BE04849DA
:103BB000496801F03F0179604549496801F4800195
:103BC000002924D042494968890908464FF000017C
:103BD00040F2FF144FF0000500EA040201EA050379
:103BE0003D4901FB03F0002101FB02F144183A4971
:103BF000A2FB0101631819467B681A464FF00003C7
:103C0000FCF73EFB02460B461346FB604AE0304B96
:103C10005B689B091A464FF0000340F2FF104FF01B
:103C2000000102EA000403EA0105204629464FF09C
:103C300000024FF000034B0143EAD06342011046FB
:103C40001946001B61EB05014FF000024FF0000325
:103C50008B0143EA90638201121A63EB01034FF078
:103C600000004FF00001D90041EA5271D000024635
:103C70000B46121945EB03034FF000004FF0000113
:103C8000990241EA9251900202460B4610461946AB
:103C90007B681A464FF00003FCF7F2FA02460B4627
:103CA0001346FB600A4B5B681B0C03F003030133F4
:103CB0005B003B60FA683B68B2FBF3F3BB6002E079
:103CC000044BBB6000BFBB6818461037BD46B0BD93
:103CD000003802400024F400001BB70080B400AF9D
:103CE000034B1B681846BD465DF8047B704700BF58
:103CF0000000002080B500AFFFF7F0FF0246054B43
:103D00009B689B0A03F007030349CB5C22FA03F389
:103D1000184680BD00380240C0F0000880B500AFF2
:103D2000FFF7DCFF0246054B9B685B0B03F00703C4
:103D30000349CB5C22FA03F3184680BD00380240E9
:103D4000C0F0000880B500AF064BDB6803F08003CD
:103D5000802B04D100F00AF8034B80221A7000BFB8
:103D600080BD00BF003802400E38024080B400AF72
:103D700000BFBD465DF8047B7047000080B582B08F
:103D800000AF78607B68002B01D1012384E17B6860
:103D90001B68724A934213D07B681B68704A934237
:103DA0000ED07B681B686F4A934209D07B681B6802
:103DB0006D4A934204D04FF4A1716C48FCF721FE88
:103DC0007B685B68002B09D07B685B68B3F5827FFA
:103DD00004D040F243116548FCF713FE7B689B68F2
:103DE000002B0ED07B689B68B3F5806F09D07B6891
:103DF0009B68B3F5004F04D04FF4A2715B48FCF709
:103E000000FE7B68DB68B3F5006F08D07B68DB6879
:103E1000002B04D040F245115448FCF7F2FD7B68BA
:103E20009B69B3F5007F0DD07B689B69002B09D09F
:103E30007B689B69B3F5802F04D04FF4A3714B4886
:103E4000FCF7DFFD7B68DB69002B20D07B68DB693A
:103E5000082B1CD07B68DB69102B18D07B68DB69D2
:103E6000182B14D07B68DB69202B10D07B68DB69B2
:103E7000282B0CD07B68DB69302B08D07B68DB6992
:103E8000382B04D040F247113848FCF7BAFD7B6864
:103E90001B6A002B08D07B681B6A802B04D04FF470
:103EA000A4713248FCF7ADFD7B685B6A002B08D03B
:103EB0007B685B6A102B04D040F249112B48FCF759
:103EC000A0FD7B685B6A002B52D17B681B69002BCD
:103ED00008D07B681B69022B04D04FF4A6712348DD
:103EE000FCF78FFD7B685B69002B08D07B685B6902
:103EF000012B04D040F24D111C48FCF782FD7B6879
:103F00005B68B3F5827F25D17B68DB69002B5AD0D3
:103F10007B68DB69082B56D07B68DB69102B52D09D
:103F20007B68DB69182B4ED07B68DB69202B4AD07D
:103F30007B68DB69282B46D07B68DB69302B42D05D
:103F40007B68DB69382B3ED040F251110748FCF703
:103F500058FD38E07B680022DA6134E0003001402F
:103F600000380040003C004000340140FCE50008FF
:103F70007B68DB69002B20D07B68DB69082B1CD0B9
:103F80007B68DB69102B18D07B68DB69182B14D099
:103F90007B68DB69202B10D07B68DB69282B0CD079
:103FA0007B68DB69302B08D07B68DB69382B04D059
:103FB00040F25B113A48FCF724FD7B6800221A614D
:103FC0007B6800225A617B6800229A627B6893F8C2
:103FD0005130DBB2002B06D17B68002283F85020E1
:103FE0007868FCF74FFD7B68022283F851207B68DC
:103FF0001B681A687B681B6822F040021A607B68A5
:104000005B6803F482727B689B6803F404431A4381
:104010007B68DB6803F400631A437B681B6903F069
:1040200002031A437B685B6903F001031A437B6850
:104030009B6903F400731A437B68DB6903F0380360
:104040001A437B681B6A03F0800342EA03017B6822
:104050009B6A03F400527B681B680A431A607B6802
:104060009B691B0C03F004017B685B6A03F0100280
:104070007B681B680A435A607B681B68DA697B6847
:104080001B6822F40062DA617B6800225A657B6853
:10409000012283F85120002318460837BD4680BD11
:1040A000FCE5000880B582B000AF78607B68002B2B
:1040B00001D10123A0E07B689B69002B2CD07B6899
:1040C0001B684F4A93420ED07B681B684D4A93424F
:1040D00009D07B681B684C4A934204D04FF4B971F5
:1040E0004A48FCF78EFC7B689B69002B28D07B68D4
:1040F0009B69B3F5807F23D07B689B69B3F5007F14
:104100001ED07B689B69B3F5407F19D040F27311D4
:104110003E48FCF776FC13E07B681B68384A934204
:104120000ED07B681B68374A934209D07B681B68B6
:10413000354A934204D040F277113448FCF761FCD1
:104140007B689B68002B09D07B689B68B3F5805F18
:1041500004D040F279112D48FCF753FC7B68DB69F1
:10416000002B09D07B68DB69B3F5004F04D04FF416
:10417000BD712648FCF745FC7B6893F83D30DBB207
:10418000002B06D17B68002283F83C207868FCF77E
:1041900057FE7B68242283F83D207B681B68DA6821
:1041A0007B681B6822F40052DA60786800F0D2F96C
:1041B0007B681B681A697B681B6822F490421A614D
:1041C0007B681B685A697B681B6822F02A025A6167
:1041D0007B681B68DA687B681B6842F40052DA600F
:1041E0007B6800221A647B68202283F83D207B686C
:1041F000202283F83E20002318460837BD4680BDA4
:1042000000100140004400400014014034E6000862
:1042100080B58AB002AFF860B9603B601346FB809E
:1042200000237B61FB6893F83D30DBB2202B7CD10F
:10423000BB68002B02D0FB88002B01D1012375E065
:10424000FB6893F83C30012B01D102236EE0FB6840
:10425000012283F83C20FB6800221A64FB682122BB
:1042600083F83D20FCF7C4FE7861FB68FA889A84E5
:10427000FB68FA88DA84FB689B68B3F5805F08D135
:10428000FB681B69002B04D10023FB61BB68BB6189
:1042900003E0BB68FB610023BB61FB68002283F87D
:1042A0003C202AE03B6800937B6900228021F8686B
:1042B00000F0E2F80346002B01D0032336E0FB694F
:1042C000002B0BD1BB691B881A46FB681B68C2F325
:1042D00008025A60BB690233BB6107E0FB691A78C8
:1042E000FB681B685A60FB690133FB61FB68DB8C70
:1042F0009BB2013B9AB2FB68DA84FB68DB8C9BB211
:10430000002BCFD13B6800937B6900224021F868E5
:1043100000F0B2F80346002B01D0032306E0FB684F
:10432000202283F83D20002300E002231846203796
:10433000BD4680BD80B58AB002AFF860B9603B6011
:104340001346FB8000237B61FB6893F83E30DBB2B1
:10435000202B40F08C80BB68002B02D0FB88002B08
:1043600001D1012384E0FB6893F83C30012B01D19B
:1043700002237DE0FB68012283F83C20FB680022D9
:104380001A64FB68222283F83E20FB6800221A632D
:10439000FCF72EFE7861FB68FA889A85FB68FA883C
:1043A000DA85FB689B68B3F5805F08D1FB681B6901
:1043B000002B04D10023FB61BB68BB6103E0BB6839
:1043C000FB610023BB61FB68002283F83C2043E0D3
:1043D0003B6800937B6900222021F86800F04CF8CC
:1043E0000346002B01D0032342E0FB69002B0CD1D4
:1043F000FB681B685B689BB2C3F308039AB2BB6996
:104400001A80BB690233BB611FE0FB689B68B3F590
:10441000805F07D0FB689B68002B0AD1FB681B6993
:10442000002B06D1FB681B685B68DAB2FB691A7067
:1044300008E0FB681B685B68DBB203F07F03DAB25D
:10444000FB691A70FB690133FB61FB68DB8D9BB272
:10445000013B9AB2FB68DA85FB68DB8D9BB2002BCF
:10446000B6D1FB68202283F83E20002300E002231F
:1044700018462037BD4680BD80B590B000AFF860CB
:10448000B9603B601346FB7150E0BB6CB3F1FF3F7A
:104490004CD0BB6C002B07D0FCF7AAFD02463B6852
:1044A000D31ABA6C9A4241D2FB681B680C33BB62C8
:1044B000BB6A53E8003F7B627B6A23F4D073FB63E3
:1044C000FB681B680C33FA6B7A633B63396B7A6B5E
:1044D00041E80023FB62FB6A002BE5D1FB681B6807
:1044E00014337B617B6953E8003F3B613B6923F0F8
:1044F0000103BB63FB681B681433BA6B3A62FB6150
:10450000F9693A6A41E80023BB61BB69002BE5D138
:10451000FB68202283F83D20FB68202283F83E20A0
:10452000FB68002283F83C2003230FE0FB681B6834
:104530001A68BB681340BA689A420CBF0123002373
:10454000DBB21A46FB799A429FD0002318464037C7
:10455000BD4680BD2DE9F04F9FB000AFF866FB6E01
:104560005A689B4B9A4204D940F656619948FCF729
:1045700048FAFB6EDB68002B09D0FB6EDB68B3F5F5
:10458000005F04D040F657619248FCF73AFAFB6EA0
:104590001B69002B0ED0FB6E1B69B3F5806F09D031
:1045A000FB6E1B69B3F5C06F04D040F658618948B3
:1045B000FCF727FAFB6E5A694FF6F3731340002B92
:1045C00003D1FB6E5B69002B04D140F65961814831
:1045D000FCF717FAFB6E1B681B6923F44050FB6E57
:1045E000D968FB6E1A6840EA01031361FB6E9A6892
:1045F000FB6E1B691A43FB6E5B691A43FB6EDB693A
:1046000013433B67FB6E1B68DB6823F4164121F004
:104610000C01FB6E1A683B6F0B43D360FB6E1B688B
:104620005B6923F44070FB6E9969FB6E1A6840EA7F
:1046300001035361FB6E1A68674B9A4204D0FB6E0C
:104640001A68664B9A4203D1FFF768FB786702E06D
:10465000FFF750FB7867FB6EDB69B3F5004F40F066
:10466000C1807B6F1C464FF0000522462B469118F7
:1046700039645B417B64D7E91023121945EB0303CE
:104680004FF000004FF00001D90041EA5271D00014
:1046900002460B46111939666B417B66FB6E5B68FF
:1046A0001A464FF000039118B9635B41FB63D7E9E9
:1046B0000E23D7E91801FBF7E3FD02460B46484BF2
:1046C000A3FB02235B091E017B6F1C464FF0000514
:1046D00022462B46911839635B417B63D7E90C2353
:1046E000121945EB03034FF000004FF00001D90011
:1046F00041EA5271D00002460B461119B9656B416F
:10470000FB65FB6E5B681A464FF000039118B962B7
:104710005B41FB62D7E90A23D7E91601FBF7B0FD3D
:1047200002460B462E4BA3FB02135B09642101FBDF
:1047300003F3D31ADB003233294AA2FB03235B09BC
:104740005B0003F4F8731E447B6F18464FF00001C2
:1047500002460B4694183C625B417B62D7E9082312
:10476000121841EB03034FF000044FF00005DD0089
:1047700045EA5275D40022462B4614183C654B413D
:104780007B65FB6E5B681A464FF000039118B961B8
:104790005B41FB61D7E90623D7E91401FBF770FD04
:1047A00002460B460E4BA3FB02135B09642101FB7F
:1047B00003F3D31ADB003233094AA2FB03235B095C
:1047C00003F00702FB6E1B6832449A60C4E000BF2E
:1047D000A037A00034E6000800100140001401409A
:1047E0001F85EB517B6F1C464FF0000522462B4680
:1047F000911839615B417B61D7E90423121945EBBC
:1048000003034FF000004FF00001D90041EA52715C
:10481000D00002460B4612EB040843EB0509FB6E81
:104820005B6818464FF000014FF000024FF00003A4
:104830008B0043EA9073820040464946FBF720FD17
:1048400002460B46474BA3FB02235B091E017B6F0D
:1048500018464FF0000102460B469418BC605B41BD
:10486000FB60D7E90223121841EB03034FF0000469
:104870004FF00005DD0045EA5275D40022462B4674
:104880001418BC644B41FB64FB6E5B6818464FF028
:1048900000014FF000024FF000038B0043EA9073D9
:1048A0008200D7E91201FBF7EBFC02460B462D4BC9
:1048B000A3FB02135B09642101FB03F3D31A1B0161
:1048C0003233284AA2FB03235B0903F0F0031E44A2
:1048D0007B6F18464FF0000102460B4694183C606F
:1048E0005B417B60D7E90023121841EB03034FF0D3
:1048F00000044FF00005DD0045EA5275D400224661
:104900002B4612EB000A43EB010BFB6E5B6818466B
:104910004FF000014FF000024FF000038B0043EA1C
:104920009073820050465946FBF7AAFC02460B469C
:104930000C4BA3FB02135B09642101FB03F3D31AA5
:104940001B013233074AA2FB03235B0903F00F026A
:10495000FB6E1B6832449A6000BF7C37BD46BDE8E1
:10496000F08F00BF1F85EB5184B080B584B000AFDD
:10497000786007F11C0080E80E003B6B012B22D110
:104980007B689B6B23F480327B689A637B68DB686F
:1049900023F4840323F040037A68D3607B68DB68E8
:1049A00023F440127B68DA60FB6C012B05D17B6835
:1049B000DB6843F480127B68DA60786801F01CFBE6
:1049C0000346FB731AE07B68DB6843F040027B68B8
:1049D000DA60786801F010FB0346FB733B6C002B38
:1049E00006D17B689B6B43F480327B689A6305E059
:1049F0007B689B6B23F480327B689A63BB6A012BD4
:104A00000BD17B689B6843F006027B689A607B68E9
:104A10009B6843F020027B689A60FB7B1846103746
:104A2000BD46BDE8804004B07047000080B487B048
:104A300000AFF860B9601346FB71FB79022B65D1BA
:104A4000BB68414A934206D9BB68404A934202D2AE
:104A50000F237B6162E0BB683C4A934206D3BB688C
:104A60003B4A934202D20E237B6157E0BB68384A2F
:104A7000934206D3BB68374A934202D20D237B612F
:104A80004CE0BB68334A934206D3BB68324A934238
:104A900002D80C237B6141E0BB682F4A934206D9C0
:104AA000BB682E4A934202D80B237B6136E0BB6879
:104AB0002A4A934206D9BB68294A934202D80A235C
:104AC0007B612BE0BB68264A934206D9BB68254A26
:104AD000934202D209237B6120E0BB68214A9342C2
:104AE00006D3BB68204A934202D808237B6115E0B5
:104AF000BB681D4A934206D9BB681C4A934202D246
:104B000007237B610AE006237B6107E0FB79002B2A
:104B100002D109237B6101E009237B61FB68DB682B
:104B200023F47052FB68DA60FB68DA687B699B02E9
:104B300003F470531A43FB68DA60002318461C37ED
:104B4000BD465DF8047B7047BFACD800C0E1E4000F
:104B50000024F400807306019F491A01FF2C3101E3
:104B60003FA44C0100366E011FABA6010048E801CE
:104B700080B483B000AF78607B689B6843F001022B
:104B80007B689A60002318460C37BD465DF8047BAD
:104B9000704780B483B000AF78607B689B6823F077
:104BA00001027B689A60002318460C37BD465DF809
:104BB000047B704780B584B000AF78600B46FB7013
:104BC0000023FB607B68DB6823F0C0427B68DA600F
:104BD000FB78012B15D17B68DB6843F000527B68C2
:104BE000DA600120FCF710FAFB680133FB6078689B
:104BF00001F072F90346012B1ED0FB68312BF0D96E
:104C00001AE0FB78002B15D17B68DB6843F080420B
:104C10007B68DA600120FCF7F7F9FB680133FB6081
:104C2000786801F059F90346002B05D0FB68312B59
:104C3000F0D901E0012305E0FB68322B01D101230B
:104C400000E0002318461037BD4680BD84B080B513
:104C500086B000AF786007F1240080E80E000023E2
:104C6000FB757B68FB6000233B6109E07A683B6968
:104C700040339B00134400225A603B6901333B617F
:104C80003B690E2BF2D9FB6C002B1CD1FB6803F5A2
:104C900000635B68FA6802F5006243F00203536048
:104CA0007B689B6B43F400127B689A637B689B6B09
:104CB00023F400227B689A637B689B6B23F4802239
:104CC0007B689A630BE07B689B6B23F400127B6824
:104CD0009A637B689B6B43F400227B689A63FB6852
:104CE00003F560631A4600231360FB6803F5006355
:104CF0001946FB6803F500631A460B681360BB6B2B
:104D0000012B0CD1FB6A002B04D10021786800F044
:104D100045F908E00121786800F040F903E003213B
:104D2000786800F03BF91021786800F0F3F803464A
:104D3000002B01D00123FB75786800F00FF90346C2
:104D4000002B01D00123FB75FB6803F500631A46B5
:104D500000231361FB6803F500631A4600235361C7
:104D6000FB6803F500631A460023D36100233B610F
:104D700043E03B695A01FB68134403F510631B6869
:104D800003F00043B3F1004F18D13B69002B0AD167
:104D90003B695A01FB68134403F510631A464FF050
:104DA0000063136013E03B695A01FB68134403F589
:104DB00010631A464FF09043136008E03B695A01B4
:104DC000FB68134403F510631A46002313603B6924
:104DD0005A01FB68134403F510631A46002313615C
:104DE0003B695A01FB68134403F510631A464FF6FA
:104DF0007F3393603B6901333B617B6A3A699A4236
:104E0000B7D300233B6143E03B695A01FB6813447D
:104E100003F530631B6803F00043B3F1004F18D172
:104E20003B69002B0AD13B695A01FB68134403F527
:104E300030631A464FF00063136013E03B695A0178
:104E4000FB68134403F530631A464FF09043136038
:104E500008E03B695A01FB68134403F530631A46C6
:104E6000002313603B695A01FB68134403F5306368
:104E70001A46002313613B695A01FB68134403F58A
:104E800030631A464FF67F3393603B6901333B61D1
:104E90007B6A3A699A42B7D3FB6803F500631B69E2
:104EA000FA6802F5006223F4807313617B680022C4
:104EB0009A617B686FF080425A613B6B002B05D191
:104EC0007B689B6943F010027B689A617B689A69F2
:104ED0000F4B13437A689361FB6B002B05D07B6803
:104EE0009B6943F008027B689A61FB6C012B07D138
:104EF0007B689B6943F0804343F004037A689361C5
:104F0000FB7D18461837BD46BDE8804004B07047A9
:104F100000383C8080B485B000AF786039600023F1
:104F2000FB603B689B0143F020027B681A61FB68D1
:104F30000133FB60084A934201D9032306E07B68F2
:104F40001B6903F02003202BF1D0002318461437EF
:104F5000BD465DF8047B7047400D030080B485B00A
:104F600000AF78600023FB607B6810221A61FB6849
:104F70000133FB60084A934201D9032306E07B68B2
:104F80001B6903F01003102BF1D0002318461437CF
:104F9000BD465DF8047B7047400D030080B485B0CA
:104FA00000AF78600B46FB707B68FB60FB6803F525
:104FB00000631A68FB78F96801F5006113430B6020
:104FC000002318461437BD465DF8047B704780B453
:104FD00087B000AF78607B683B613B6903F5006395
:104FE0009B6803F00603FB60FB68002B02D10023E3
:104FF000FB750AE0FB68022B02D0FB68062B02D18E
:105000000223FB7501E00F23FB75FB7D18461C375F
:10501000BD465DF8047B704780B485B000AF786012
:1050200039607B68FB603B681B78BB603B685B78E2
:10503000012B3AD1FB6803F50063DA693B681B7802
:1050400003F00F03012101FA03F39BB2F96801F5A4
:1050500000611343CB61BB685A01FB68134403F53D
:1050600010631B6803F40043002B55D1BB685A0141
:10507000FB68134403F510631A683B689B68C3F32D
:105080000A013B68DB789B041943BB689B050B4313
:105090001343BA685101FA680A4402F5106243F0FA
:1050A000805343F40043136036E0FB6803F500636C
:1050B000DA693B681B7803F00F03012101FA03F35F
:1050C0001B04F96801F500611343CB61BB685A0109
:1050D000FB68134403F530631B6803F40043002BA3
:1050E0001AD1BB685A01FB68134403F530631A6890
:1050F0003B689B68C3F30A013B68DB789B040B4366
:105100001343BA685101FA680A4402F5306243F069
:10511000805343F400431360002318461437BD4600
:105120005DF8047B7047000080B485B000AF786004
:1051300039607B68FB603B681B78BB603B685B78D1
:10514000012B61D1BB685A01FB68134403F510635E
:105150001B6803F00043B3F1004F1FD1BB685A0135
:10516000FB68134403F510631B68BA685101FA68C1
:105170000A4402F5106243F000631360BB685A01F1
:10518000FB68134403F510631B68BA685101FA68A1
:105190000A4402F5106243F080431360FB6803F594
:1051A0000063DA6B3B681B7803F00F03012101FAFF
:1051B00003F39BB2DB43F96801F500611340CB6355
:1051C000FB6803F50063DA693B681B7803F00F03A3
:1051D000012101FA03F39BB2DB43F96801F5006199
:1051E0001340CB61BB685A01FB68134403F510639D
:1051F0001A68BB685901FB680B4403F51063194634
:10520000354B13400B6060E0BB685A01FB681344E8
:1052100003F530631B6803F00043B3F1004F1FD167
:10522000BB685A01FB68134403F530631B68BA6816
:105230005101FA680A4402F5306243F000631360DA
:10524000BB685A01FB68134403F530631B68BA68F6
:105250005101FA680A4402F5306243F0804313605A
:10526000FB6803F50063DA6B3B681B7803F00F0300
:10527000012101FA03F31B04DB43F96801F5006126
:105280001340CB63FB6803F50063DA693B681B7866
:1052900003F00F03012101FA03F31B04DB43F96858
:1052A00001F500611340CB61BB685A01FB681344F0
:1052B00003F530631A68BB685901FB680B4403F5BA
:1052C00030631946054B13400B6000231846143712
:1052D000BD465DF8047B7047007833EC0078F3EF4F
:1052E00080B58AB002AFF860B9601346FB71FB6805
:1052F000FB61BB681B78BB61BB685B78012B40F02E
:105300005C81BB685B69002B32D1BB695A01FB69C8
:10531000134403F510631B69BA695101FA690A4421
:1053200002F5106223F0FF5323F4C0131361BB692D
:105330005A01FB69134403F510631B69BA695101F3
:10534000FA690A4402F5106243F400231361BB6951
:105350005A01FB69134403F510631B69BA695101D3
:10536000FA690A4402F51062DB0CDB04136174E095
:10537000BB695A01FB69134403F510631B69BA69E1
:105380005101FA690A4402F51062DB0CDB04136177
:10539000BB695A01FB69134403F510631B69BA69C1
:1053A0005101FA690A4402F5106223F0FF5323F415
:1053B000C0131361BB695A01FB69134403F5106301
:1053C0001A69BB685969BB689B680B44591EBB6866
:1053D0009B68B1FBF3F3D9049D4B0B40B9694801BD
:1053E000F969014401F5106113430B61BB695A016E
:1053F000FB69134403F510631A69BB685B69C3F367
:105400001203B9694801F969014401F510611343B8
:105410000B61BB68DB78012B1FD1BB695A01FB69AB
:10542000134403F510631B69BA695101FA690A4410
:1054300002F5106223F0C0431361BB695A01FB6996
:10544000134403F510631B69BA695101FA690A44F0
:1054500002F5106243F000531361FB79012B4BD12D
:10546000BB681B69002B09D0BB695A01FB69134457
:1054700003F510631A46BB681B695361BB68DB7890
:10548000012B28D1FB6903F500639B6803F480734B
:10549000002B10D1BB695A01FB69134403F510635B
:1054A0001B68BA695101FA690A4402F5106243F0B7
:1054B000005313600FE0BB695A01FB69134403F505
:1054C00010631B68BA695101FA690A4402F5106257
:1054D00043F080531360BB695A01FB69134403F521
:1054E00010631B68BA695101FA690A4402F5106237
:1054F00043F0044313602FE1BB695A01FB69134475
:1055000003F510631B68BA695101FA690A4402F590
:10551000106243F004431360BB68DB78012B15D0A5
:10552000BB685B69002B00F01781FB6903F5006322
:105530005A6BBB681B7803F00F03012101FA03F3D8
:10554000F96901F5006113434B6305E1FB6903F55C
:1055500000639B6803F48073002B10D1BB695A0170
:10556000FB69134403F510631B68BA695101FA69BA
:105570000A4402F5106243F0005313600FE0BB6968
:105580005A01FB69134403F510631B68BA695101A2
:10559000FA690A4402F5106243F080531360BB6855
:1055A000D968BB681A78BB685B6998B2FB790093CD
:1055B0000346F86800F02BFACEE0BB695A01FB699C
:1055C000134403F530631B69BA695101FA690A444F
:1055D00002F53062DB0CDB041361BB695A01FB6925
:1055E000134403F530631B69BA695101FA690A442F
:1055F00002F5306223F0FF5323F4C0131361BB683C
:105600005B69002B26D1BB695A01FB69134403F582
:1056100030631A69BB689B68C3F31203B969480118
:10562000F969014401F5306113430B61BB695A010B
:10563000FB69134403F530631B69BA695101FA69C8
:105640000A4402F5306243F40023136136E000BFE0
:105650000000F81FBB685A69BB689B6813445A1E58
:10566000BB689B68B2FBF3F3FB82BB695A01FB6921
:10567000134403F530631A69FB8AD904394B0B4094
:10568000B9694801F969014401F5306113430B61BF
:10569000BB695A01FB69134403F530631A69BB689F
:1056A0009B68F98A01FB03F3C3F31203B96948014C
:1056B000F969014401F5306113430B61FB79012B5A
:1056C0000DD1BB68DB68002B09D0BB68D968BB690A
:1056D0005A01FB69134403F530630A465A61BB68FB
:1056E000DB78012B28D1FB6903F500639B6803F489
:1056F0008073002B10D1BB695A01FB69134403F579
:1057000030631B68BA695101FA690A4402F53062D4
:1057100043F0005313600FE0BB695A01FB69134467
:1057200003F530631B68BA695101FA690A4402F54E
:10573000306243F080531360BB695A01FB69134424
:1057400003F530631B68BA695101FA690A4402F52E
:10575000306243F004431360002318462037BD46EF
:1057600080BD00BF0000F81F80B487B000AFF860B4
:10577000B9601346FB71FB687B61BB681B783B61BA
:10578000BB685B78012B40F0CD80BB685B69002B68
:1057900032D13B695A017B69134403F510631B69DD
:1057A0003A6951017A690A4402F5106223F0FF5305
:1057B00023F4C01313613B695A017B69134403F559
:1057C00010631B693A6951017A690A4402F5106253
:1057D00043F4002313613B695A017B69134403F5C9
:1057E00010631B693A6951017A690A4402F5106233
:1057F000DB0CDB0413614EE03B695A017B69134407
:1058000003F510631B693A6951017A690A4402F58C
:105810001062DB0CDB0413613B695A017B691344A2
:1058200003F510631B693A6951017A690A4402F56C
:10583000106223F0FF5323F4C0131361BB685A694D
:10584000BB689B689A4203D9BB689A68BB685A6177
:105850003B695A017B69134403F510631B693A697C
:1058600051017A690A4402F5106243F4002313617E
:105870003B695A017B69134403F510631A69BB68DD
:105880005B69C3F31203396948017969014401F581
:10589000106113430B61FB79012B1ED1BB681B699F
:1058A000002B09D03B695A017B69134403F510634F
:1058B0001A46BB681B6953613B695A017B691344F3
:1058C00003F510631B683A6951017A690A4402F5CD
:1058D000106243F00443136092E03B695A017B6914
:1058E000134403F510631B683A6951017A690A444D
:1058F00002F5106243F004431360BB685B69002B40
:105900007ED07B6903F500635A6BBB681B7803F09C
:105910000F03012101FA03F3796901F500611343D3
:105920004B636DE03B695A017B69134403F53063B7
:105930001B693A6951017A690A4402F53062DB0C4D
:10594000DB0413613B695A017B69134403F530633F
:105950001B693A6951017A690A4402F5306223F001
:10596000FF5323F4C0131361BB685B69002B03D0A2
:10597000BB689A68BB685A613B695A017B691344EA
:1059800003F530631B693A6951017A690A4402F5EB
:10599000306243F4002313613B695A017B6913446D
:1059A00003F530631A69BB689B68C3F31203396956
:1059B00048017969014401F5306113430B61FB79BA
:1059C000012B0DD1BB68DB68002B09D0BB68D968FF
:1059D0003B695A017B69134403F530630A465A61F7
:1059E0003B695A017B69134403F530631B683A69CC
:1059F00051017A690A4402F5306243F004431360AE
:105A0000002318461C37BD465DF8047B704780B400
:105A100089B000AFF860B96011461A460B46FB71B9
:105A20001346BB80FB687B61BB68FB6197F828303D
:105A3000002B23D1BB8803339B083B610023BB6150
:105A400018E0FB791A037B69134403F580531A4667
:105A5000FB691B681360FB690133FB61FB69013360
:105A6000FB61FB690133FB61FB690133FB61BB69CE
:105A70000133BB61BA693B699A42E2D300231846FD
:105A80002437BD465DF8047B704780B48BB000AF0F
:105A9000F860B9601346FB80FB68BB61BB687B6242
:105AA000FB889B089BB27B61FB8803F00303FB83AD
:105AB00000233B6214E0BB6903F580531A687B6ADC
:105AC0001A607B6A01337B627B6A01337B627B6A8B
:105AD00001337B627B6A01337B623B6A01333B6249
