:020000040800F2
:1000000000000120DD0E0008210C00082B0C000868
:10001000310C0008370C00083D0C000800000000FF
:10002000000000000000000000000000430C000879
:10003000510C0008000000005F0C00086D0C000867
:10004000250F0008250F0008250F0008250F0008C0
:10005000250F0008250F0008250F0008250F0008B0
:10006000250F0008250F0008250F0008250F0008A0
:10007000250F0008250F0008250F0008250F000890
:10008000250F0008250F0008250F000800000000BC
:10009000000000000000000000000000250F000824
:1000A000250F0008250F0008250F0008250F000860
:1000B000250F0008250F0008250F0008250F000850
:1000C000250F0008250F0008250F0008250F000840
:1000D000250F0008250F0008250F0008000000006C
:1000E000250F0008250F0008250F0008000000005C
:1000F000000000000000000000000000250F0008C4
:1001000000000000250F0008250F0008250F00083B
:1001100000000000000000000000000000000000DF
:10012000250F0008250F0008250F0008250F0008DF
:10013000250F000800000000000000000000000083
:10014000000000000000000000000000790C000822
:10015000250F0008250F0008250F0008250F0008AF
:10016000250F0008250F0008000000000000000017
:10017000000000000000000000000000000000007F
:1001800000000000250F0008000000000000000033
:04019000250F00082F
:1001A00010B5054C237833B9044B13B10448AFF3B1
:1001B00000800123237010BD180200200000000001
:1001C0006CEB000808B5034B1BB103490348AFF3C0
:1001D000008008BD000000001C0200206CEB00083D
:1001E00001F0FF01102A2BDB10F0070F08D010F8E8
:1001F000013B013A8B422DD010F0070F42B3F6D1EC
:10020000F0B441EA012141EA014122F007047FF004
:1002100000070023F0E80256083C85EA010586EA5B
:10022000010685FA47F5A3FA87F586FA47F6A5FA97
:1002300087F68EB9EED1F0BC01F0FF0102F00702A3
:1002400032B110F8013B013A83EA010313B1F8D14E
:100250000020704701387047002D06BF354603382F
:10026000073815F0010F07D1013015F4807F02BF68
:10027000013015F4C03F0130F0BC0138704700BFB9
:1002800053B94AB9002908BF00281CBF4FF0FF31FD
:100290004FF0FF3000F074B9ADF1080C6DE904CEF9
:1002A00000F006F8DDF804E0DDE9022304B0704751
:1002B0002DE9F047089D04468E46002B4DD18A4219
:1002C000944669D9B2FA82F252B101FA02F3C2F14C
:1002D000200120FA01F10CFA02FC41EA030E9440DD
:1002E0004FEA1C48210CBEFBF8F61FFA8CF708FBFE
:1002F00016E341EA034306FB07F199420AD91CEBD6
:10030000030306F1FF3080F01F81994240F21C8107
:10031000023E63445B1AA4B2B3FBF8F008FB10334F
:1003200044EA034400FB07F7A7420AD91CEB040484
:1003300000F1FF3380F00A81A74240F20781644454
:10034000023840EA0640E41B00261DB1D4400023D9
:10035000C5E900433146BDE8F0878B4209D9002D3D
:1003600000F0EF800026C5E9000130463146BDE8C7
:10037000F087B3FA83F6002E4AD18B4202D3824231
:1003800000F2F980841A61EB030301209E46002DE0
:10039000E0D0C5E9004EDDE702B9FFDEB2FA82F235
:1003A000002A40F09280A1EB0C014FEA1C471FFA93
:1003B0008CFE0126200CB1FBF7F307FB131140EA7A
:1003C00001410EFB03F0884208D91CEB010103F147
:1003D000FF3802D2884200F2CB804346091AA4B209
:1003E000B1FBF7F007FB101144EA01440EFB00FEDD
:1003F000A64508D91CEB040400F1FF3102D2A64542
:1004000000F2BB800846A4EB0E0440EA03409CE7E0
:10041000C6F12007B34022FA07FC4CEA030C20FA8D
:1004200007F401FA06F31C43F9404FEA1C4900FAAD
:1004300006F3B1FBF9F8200C1FFA8CFE09FB18112A
:1004400040EA014108FB0EF0884202FA06F20BD99D
:100450001CEB010108F1FF3A80F08880884240F2ED
:100460008580A8F102086144091AA4B2B1FBF9F031
:1004700009FB101144EA014100FB0EFE8E4508D92C
:100480001CEB010100F1FF346CD28E456AD90238B1
:10049000614440EA0840A0FB0294A1EB0E01A14296
:1004A000C846A64656D353D05DB1B3EB080261EB04
:1004B0000E0101FA07F722FA06F3F1401F43C5E9DE
:1004C000007100263146BDE8F087C2F12003D84014
:1004D0000CFA02FC21FA03F3914001434FEA1C4756
:1004E0001FFA8CFEB3FBF7F007FB10360B0C43EA48
:1004F000064300FB0EF69E4204FA02F408D91CEBF8
:10050000030300F1FF382FD29E422DD902386344F5
:100510009B1B89B2B3FBF7F607FB163341EA034195
:1005200006FB0EF38B4208D91CEB010106F1FF38E4
:1005300016D28B4214D9023E6144C91A46EA0046DB
:1005400038E72E46284605E70646E3E61846F8E66D
:100550004B45A9D2B9EB020864EB0C0E0138A3E7B6
:100560004646EAE7204694E74046D1E7D0467BE797
:10057000023B614432E7304609E76444023842E70F
:10058000704700BF80B58CB000AF07F11C0300229C
:100590001A605A609A60DA601A610023BB61754B79
:1005A0001B6B744A43F010031363724B1B6B03F015
:1005B0001003BB61BB6900237B616E4B1B6B6D4AF3
:1005C00043F0040313636B4B1B6B03F004037B6169
:1005D0007B6900233B61674B1B6B664A43F08003DA
:1005E0001363644B1B6B03F080033B613B69002387
:1005F000FB60604B1B6B5F4A43F0010313635D4B71
:100600001B6B03F00103FB60FB680023BB60594BCD
:100610001B6B584A43F002031363564B1B6B03F0EA
:100620000203BB60BB6800237B60524B1B6B514ACB
:1006300043F0080313634F4B1B6B03F008037B600D
:100640007B68002210214C4801F0D8F800224FF4BA
:10065000E0614A4801F0D2F800224FF601714848A3
:1006600001F0CCF84FF67F03FB6100233B620023CF
:100670007B6207F11C031946404800F02BFE42F252
:10068000FF13FB6103233B6200237B6207F11C0322
:1006900019463C4800F01EFEEF23FB6103233B623A
:1006A00000237B6207F11C031946334800F012FE59
:1006B0001023FB6101233B6200237B620023BB62AA
:1006C00007F11C0319462C4800F004FE4FF20743C3
:1006D000FB6103233B6200237B6207F11C03194685
:1006E000294800F0F7FD8023FB6103233B620023D0
:1006F0007B6207F11C031946204800F0EBFD4FF424
:10070000E063FB6101233B6200237B620023BB6249
:1007100007F11C031946194800F0DCFD4FF6017380
:10072000FB6101233B6200237B620023BB6207F174
:100730001C031946124800F0CDFDFE23FB61002387
:100740003B6200237B6207F11C0319460C4800F052
:10075000C1FD4FF44073FB6100233B6200237B62C9
:1007600007F11C031946084800F0B4FD00BF3037FC
:10077000BD4680BD0038024000000240001002402B
:10078000000C0240000802400004024080B500AFA7
:10079000124B134A1A60114B124A5A600F4B002237
:1007A0009A600E4B0022DA600C4B4FF480421A61C3
:1007B0000A4B00225A61094B00229A61074B002222
:1007C000DA61064B00221A62044801F049F8034638
:1007D000002B01D000F016F900BF80BD34020020CC
:1007E00000540040801A060080B58CB000AF7860DD
:1007F00007F11C0300221A605A609A60DA601A61DD
:100800007B681B68424A93422CD10023BB61414B59
:100810001B6B404A43F0020313633E4B1B6B03F018
:100820000203BB61BB69C023FB6112233B6201234E
:100830007B620323BB620423FB6207F11C0319469E
:10084000354800F047FD00237B61324B1B6C314A79
:1008500043F4001313642F4B1B6C03F400137B61F0
:100860007B6950E07B681B682C4A93424BD1002384
:100870003B61284B1B6B274A43F004031363254B52
:100880001B6B03F004033B613B690023FB60214BBE
:100890001B6B204A43F0010313631E4B1B6B03F0D9
:1008A0000103FB60FB684FF40073FB6112233B62A2
:1008B00001237B620323BB620423FB6207F11C0359
:1008C0001946174800F006FD4FF48073FB611223B0
:1008D0003B6201237B620323BB620423FB6207F1BB
:1008E0001C0319460F4800F0F5FC0023BB60094BC0
:1008F0001B6C084A43F400031364064B1B6C03F49F
:100900000003BB60BB6800BF3037BD4680BD00BF81
:10091000005400400038024000040240005C0040E7
:10092000000802400000024080B594B000AF07F11B
:1009300020033022002118460DF000FB07F10C03C4
:1009400000221A605A609A60DA601A610023BB6064
:100950002A4B1B6C294A43F080531364274B1B6CB2
:1009600003F08053BB60BB6800237B60244B1B6893
:1009700023F44043224A43F400431360204B1B6896
:1009800003F440437B607B6805233B624FF4803374
:100990007B620123BB620223BB634FF48003FB63D2
:1009A00006233B64A8237B640423BB640723FB6406
:1009B00007F12003184602F01BFC0346002B01D070
:1009C00000F020F80F23FB6002233B6100237B61D2
:1009D0004FF48053BB610023FB6107F10C0302213C
:1009E000184602F02DFF0346002B01D000F00AF854
:1009F00003F0B4F800BF5037BD4680BD0038024058
:100A00000070004080B400AF72B600BFFEE780B453
:100A100083B000AF7860396000BF0C37BD465DF829
:100A2000047B704780B500AF174B184A1A60164B0D
:100A30004FF482725A60144B00229A60124B0022CB
:100A4000DA60114B00221A610F4B00225A610E4BE3
:100A50004FF400729A610C4B0822DA610A4B0022B3
:100A60001A62094B00225A62074B00229A62064B17
:100A70000A22DA62044803F093F90346002B01D0FE
:100A8000FFF7C0FF00BF80BD88020020003C00408F
:100A900080B58CB000AF786007F11C0300221A60AB
:100AA0005A609A60DA601A617B681B68424A934216
:100AB0002CD10023BB61414B5B6C404A43F4805313
:100AC00053643E4B5B6C03F48053BB61BB690023F2
:100AD0007B613A4B1B6B394A43F002031363374B7C
:100AE0001B6B03F002037B617B693823FB610223EC
:100AF0003B6200237B620323BB620523FB6207F199
:100B00001C0319462E4800F0E5FB50E07B681B688B
:100B10002C4A93424BD100233B61284B1B6C274A44
:100B200043F400431364254B1B6C03F400433B6107
:100B30003B690023FB60214B1B6B204A43F0010300
:100B400013631E4B1B6B03F00103FB60FB68002368
:100B5000BB601A4B1B6B194A43F004031363174B1A
:100B60001B6B03F00403BB60BB684FF40043FB61E5
:100B700002233B6200237B620323BB620623FB62EA
:100B800007F11C031946104800F0A4FB4FF4E05392
:100B9000FB6102233B6200237B620323BB620623CB
:100BA000FB6207F11C031946084800F093FB00BFE5
:100BB0003037BD4680BD00BF0030014000380240E4
:100BC00000040240003C00400000024000080240D7
:100BD00080B483B000AF00237B60104B5B6C0F4A86
:100BE00043F4804353640D4B5B6C03F480437B60A0
:100BF0007B6800233B60094B1B6C084A43F0805321
:100C00001364064B1B6C03F080533B603B6800BFD2
:100C10000C37BD465DF8047B704700BF00380240CA
:100C200080B500AF03F0A0F8FEE780B400AFFEE7A8
:100C300080B400AFFEE780B400AFFEE780B400AF41
:100C4000FEE780B400AF00BFBD465DF8047B70478F
:100C500080B400AF00BFBD465DF8047B704780B430
:100C600000AF00BFBD465DF8047B704780B500AFA4
:100C700000F0ACF900BF80BD80B500AF024801F0C4
:100C80009CFA00BF80BD00BF4006002080B586B042
:100C900000AFF860B9607A6000237B610AE00BF076
:100CA000C1FE0146BB685A1CBA60CAB21A707B69A1
:100CB00001337B617A697B689A42F0DB7B68184676
:100CC0001837BD4680BD80B586B000AFF860B9600A
:100CD0007A6000237B6109E0BB685A1CBA601B780C
:100CE00018460BF081FE7B6901337B617A697B6872
:100CF0009A42F1DB7B6818461837BD4680BD80B448
:100D000083B000AF78604FF0FF3318460C37BD4614
:100D10005DF8047B704780B483B000AF78603960C1
:100D20003B684FF400525A60002318460C37BD460A
:100D30005DF8047B704780B483B000AF7860012316
:100D400018460C37BD465DF8047B704780B485B00B
:100D500000AFF860B9607A60002318461437BD46CA
:100D60005DF8047B7047000080B586B000AF786006
:100D7000144A154BD31A7B617B693B61134B1B688B
:100D8000002B02D1114B124A1A60104B1A687B6873
:100D900013443A699A4207D20CF068FE03460C22CB
:100DA0001A604FF0FF3309E0084B1B68FB60074BEC
:100DB0001A687B681344054A1360FB6818461837A5
:100DC000BD4680BD0000012000080000E0020020B8
:100DD000180B002080B400AF064BD3F88830054ACA
:100DE00043F47003C2F8883000BFBD465DF8047B51
:100DF000704700BF00ED00E080B500AF114B124A14
:100E00001A60104B4FF4E1325A600E4B00229A6088
:100E10000C4B0022DA600B4B00221A61094B0C22AA
:100E20005A61084B00229A61064B0022DA6105489C
:100E300003F04AF90346002B01D0FFF7E3FD00BFA2
:100E400080BD00BFE40200200010014080B58AB0E0
:100E500000AF786007F1140300221A605A609A60AC
:100E6000DA601A617B681B68194A93422CD100230F
:100E70003B61184B5B6C174A43F010035364154BEE
:100E80005B6C03F010033B613B690023FB60114B7B
:100E90001B6B104A43F0010313630E4B1B6B03F0F3
:100EA0000103FB60FB684FF4C0637B610223BB61FD
:100EB0000023FB6103233B6207237B6207F11403DA
:100EC0001946054800F006FA00BF2837BD4680BD28
:100ED0000010014000380240000002400C480D495B
:100EE0000D4A002302E0D458C4500433C4188C4285
:100EF000F9D30A4A0A4C002301E013600432A242EB
:100F0000FBD3FFF767FF0CF06FFF0BF0ADF97047F5
:100F10000000002018020020D4010108180200205F
:100F2000180B0020FEE7000080B500AF0E4B1B68D9
:100F30000D4A43F4007313600B4B1B680A4A43F4D9
:100F400080631360084B1B68074A43F48073136087
:100F5000032000F04FF9002000F008F8FFF738FEFA
:100F60000023184680BD00BF003C024080B582B01F
:100F700000AF7860124B1A68124B1B7819464FF479
:100F80007A73B3FBF1F3B2FBF3F3184600F096F972
:100F90000346002B01D001230EE07B680F2B0AD8FB
:100FA000002279684FF0FF3000F044F9064A7B6870
:100FB0001360002300E0012318460837BD4680BDBA
:100FC00000000020080000200400002080B400AFD2
:100FD000064B1B781A46064B1B681344044A1360E1
:100FE00000BFBD465DF8047B704700BF08000020CD
:100FF0002803002080B400AF034B1B681846BD4691
:101000005DF8047B704700BF2803002080B584B0E2
:1010100000AF7860FFF7EEFFB8607B68FB60FB68AD
:10102000B3F1FF3F05D00A4B1B781A46FB68134407
:10103000FB6000BFFFF7DEFF0246BB68D31AFA6809
:101040009A42F7D800BF00BF1037BD4680BD00BF31
:101050000800002080B485B000AF78607B6803F0A2
:101060000703FB600C4BDB68BB60BA684FF6FF03FD
:101070001340BB60FB681A02BB68134343F0BF63B5
:1010800043F40033BB60044ABB68D36000BF14372D
:10109000BD465DF8047B704700ED00E080B400AF12
:1010A000044BDB681B0A03F007031846BD465DF8D6
:1010B000047B704700ED00E080B483B000AF0346CE
:1010C000FB7197F90730002B0BDBFB7903F01F0254
:1010D000074997F907305B09012000FA02F241F84D
:1010E000232000BF0C37BD465DF8047B704700BF6E
:1010F00000E100E080B483B000AF03463960FB71CB
:1011000097F90730002B0ADB3B68DAB20C4997F9F4
:1011100007301201D2B20B4483F800230AE03B6887
:10112000DAB20849FB7903F00F03043B1201D2B293
:101130000B441A7600BF0C37BD465DF8047B704740
:1011400000E100E000ED00E080B489B000AFF8609D
:10115000B9607A60FB6803F00703FB61FB69C3F1C8
:101160000703042B28BF0423BB61FB690433062B50
:1011700002D9FB69033B00E000237B614FF0FF32A3
:10118000BB6902FA03F3DA43BB681A407B699A40F1
:101190004FF0FF317B6901FA03F3D9437B680B40C1
:1011A000134318462437BD465DF8047B70470000A2
:1011B00080B582B000AF78607B68013BB3F1807F7F
:1011C00001D301230FE00A4A7B68013B53600F21E2
:1011D0004FF0FF30FFF78EFF054B00229A60044B63
:1011E00007221A60002318460837BD4680BD00BF9D
:1011F00010E000E080B582B000AF78607B68072B1C
:101200000FD07B68062B0CD07B68052B09D07B6840
:10121000042B06D07B68032B03D092210448FFF7F0
:10122000F6FB7868FFF716FF00BF0837BD4680BDA4
:1012300084EB000880B586B000AF0346B9607A60E1
:10124000FB7300237B617B680F2B03D9AA210E4817
:10125000FFF7DDFBBB680F2B03D9AB210A48FFF773
:10126000D6FBFFF71BFF78617A68B9687869FFF7EA
:101270006BFF024697F90F3011461846FFF73AFF09
:1012800000BF1837BD4680BD84EB000880B582B032
:1012900000AF0346FB7197F90730002B03DABE213C
:1012A0000548FFF7B4FB97F907301846FFF704FF2E
:1012B00000BF0837BD4680BD84EB000880B582B012
:1012C00000AF78607868FFF773FF03461846083769
:1012D000BD4680BD80B588B000AF7860396000231E
:1012E0007B6100233B610023BB617B68334A9342EF
:1012F00017D07B68324A934213D07B68314A9342BD
:101300000FD07B68304A93420BD07B682F4A9342C0
:1013100007D07B682E4A934203D0AC212D48FFF7BB
:1013200076FB3B681B689BB2002B05D03B681B68B3
:101330001B0C1B04002B03D0AD212648FFF767FBD5
:101340003B685B68002B35D03B685B68012B31D074
:101350003B685B68112B2DD03B685B68022B29D062
:101360003B685B68122B25D03B685B68B3F5881F30
:1013700020D03B685B68B3F5041F1BD03B685B68FB
:10138000B3F5441F16D03B685B68B3F5901F11D0CE
:101390003B685B68B3F5081F0CD03B685B68B3F52E
:1013A000481F07D03B685B68032B03D0AE21094878
:1013B000FFF72DFB0023FB6106E200BF00000240A7
:1013C0000004024000080240000C024000100240ED
:1013D000001C0240C0EB00080122FB6902FA03F383
:1013E0007B613B681B687A6913403B613A697B69A2
:1013F0009A4240F0E6813B685B6803F00303012BEF
:1014000005D03B685B6803F00303022B44D13B68C3
:10141000DB68002B0FD03B68DB68012B0BD03B68EF
:10142000DB68022B07D03B68DB68032B03D0C021AD
:101430009448FFF7ECFA7B689B68BB61FB695B0033
:10144000032202FA03F3DB43BA691340BB613B6832
:10145000DA68FB695B0002FA03F3BA691343BB6104
:101460007B68BA699A607B685B68BB610122FB6933
:1014700002FA03F3DB43BA691340BB613B685B6864
:101480001B0903F00102FB6902FA03F3BA69134373
:10149000BB617B68BA695A603B685B6803F0030311
:1014A000032B27D03B689B68002B0BD03B689B68C5
:1014B000012B07D03B689B68022B03D0D1217148D8
:1014C000FFF7A5FA7B68DB68BB61FB695B00032261
:1014D00002FA03F3DB43BA691340BB613B689A68C5
:1014E000FB695B0002FA03F3BA691343BB617B68D3
:1014F000BA69DA603B685B6803F00303022B40F0D3
:1015000098803B681B69002B6FD03B681B690C2BD4
:101510006BD03B681B69002B67D03B681B69002BB5
:1015200063D03B681B69002B5FD03B681B69002BB5
:101530005BD03B681B69012B57D03B681B69012BB3
:1015400053D03B681B69022B4FD03B681B69022BB1
:101550004BD03B681B69022B47D03B681B69032BB0
:1015600043D03B681B69032B3FD03B681B69032BAF
:101570003BD03B681B69042B37D03B681B69042BAD
:1015800033D03B681B69042B2FD03B681B69052BAC
:101590002BD03B681B69052B27D03B681B69052BAB
:1015A00023D03B681B69062B1FD03B681B69072BA8
:1015B0001BD03B681B69072B17D03B681B69082BA6
:1015C00013D03B681B69092B0FD03B681B69092BA3
:1015D0000BD03B681B690A2B07D03B681B690F2B9C
:1015E00003D0DE212748FFF712FAFB69DA087B688F
:1015F000083253F82230BB61FB6903F007039B00FC
:101600000F2202FA03F3DB43BA691340BB613B6864
:101610001A69FB6903F007039B0002FA03F3BA6936
:101620001343BB61FB69DA087B680832B96943F888
:1016300022107B681B68BB61FB695B00032202FA16
:1016400003F3DB43BA691340BB613B685B6803F09B
:101650000302FB695B0002FA03F3BA691343BB613F
:101660007B68BA691A603B685B6803F44033002BFF
:1016700000F0A7800023FB60034B5B6C024A43F43D
:10168000804303E0C0EB0008003802405364534B32
:101690005B6C03F48043FB60FB68514AFB699B0869
:1016A000023352F82330BB61FB6903F003039B0054
:1016B0000F2202FA03F3DB43BA691340BB617B6874
:1016C000484A934219D07B68474A934213D07B68BB
:1016D000464A93420DD07B68454A934207D07B68C7
:1016E000444A934201D1042308E0072306E0032380
:1016F00004E0022302E0012300E00023FA6902F083
:10170000030292009340BA691343BB613449FB69F9
:101710009B080233BA6941F82320374B1B68BB6131
:101720003B69DB43BA691340BB613B685B6803F408
:101730008033002B03D0BA693B691343BB612E4A47
:10174000BB6913602C4B5B68BB613B69DB43BA69C7
:101750001340BB613B685B6803F40033002B03D08C
:10176000BA693B691343BB61234ABB695360224B8F
:101770009B68BB613B69DB43BA691340BB613B6853
:101780005B6803F48013002B03D0BA693B691343F1
:10179000BB61194ABB699360174BDB68BB613B694E
:1017A000DB43BA691340BB613B685B6803F4001319
:1017B000002B03D0BA693B691343BB610E4ABB6976
:1017C000D360FB690133FB61FB690F2B7FF604AE2D
:1017D00000BF00BF2037BD4680BD00BF00380240BB
:1017E00000380140000002400004024000080240AE
:1017F000000C024000100240003C014080B582B065
:1018000000AF78600B467B8013467B707B88002B93
:1018100004D07B881B0C1B04002B04D040F29D11CC
:101820000E48FFF7F4F87B78002B07D07B78012B6C
:1018300004D04FF4CF710948FFF7E9F87B78002B0B
:1018400003D07A887B689A6103E07B881A047B68FE
:101850009A6100BF0837BD4680BD00BFC0EB0008DD
:1018600080B584B000AF78607B68002B01D1012384
:10187000BDE17B681B68934A93420ED07B681B686E
:10188000914A934209D07B681B68904A934204D0E6
:1018900040F2BF118E48FFF7BAF87B685B68002BF7
:1018A00004D07B685B688B4A934204D94FF4E071A3
:1018B0008748FFF7ACF87B689B68002B09D07B68F2
:1018C0009B68B3F5804F04D040F2C1118048FFF708
:1018D0009EF87B68DB6823F47F7323F00303002BFF
:1018E00004D04FF4E1717A48FFF791F87B681B69E7
:1018F000B3F5804F09D07B681B69B3F5404F04D026
:1019000040F2C3117248FFF782F87B685B69002BD5
:1019100008D07B685B69012B04D04FF4E2716C48FE
:10192000FFF775F87B689B6923F0FE03002B04D05A
:1019300040F2C5116648FFF76AF87B68DB69002B47
:1019400008D07B68DB69402B04D04FF4E37160481A
:10195000FFF75DF87B681B6A002B08D07B681B6A69
:10196000802B04D040F2C7115948FFF750F87B682C
:1019700093F83D30DBB2002B06D17B68002283F860
:101980003C207868FEF730FF7B68242283F83D20F6
:101990007B681B681A687B681B6822F001021A606A
:1019A0007B681B681A687B681B6842F400421A60F7
:1019B0007B681B681A687B681B6822F400421A6007
:1019C00002F0AAF9F8607B685B68434A934207D843
:1019D000FB68424A934294BF01230023DBB206E036
:1019E000FB683F4A934294BF01230023DBB2002BE4
:1019F00001D00123FBE0FB683A4AA2FB03239B0CC6
:101A0000BB607B681B685B6823F03F017B681B68D9
:101A1000BA680A435A607B681B681B6A23F03F015F
:101A20007B685B682C4A934202D8BB68013309E0AB
:101A3000BB684FF4967202FB03F32B4AA2FB03230D
:101A40009B0901337A6812680B4313627B681B6839
:101A5000DB6923F44F4222F0FF027B685B681E497A
:101A60008B4219D8FB68591E7B685B685B00B1FB31
:101A7000F3F3591C40F6FC730B40002B0AD0FB68B3
:101A8000591E7B685B685B00B1FBF3F30133C3F362
:101A90000B0365E0042363E07B689B68002B25D182
:101AA000FB68581E7B6859680B465B000B44B0FB13
:101AB000F3F30133C3F30B03002B0CBF012300230B
:101AC000DBB226E00054004000580040005C0040BB
:101AD000FCEB0008801A0600A08601007F841E002F
:101AE000FF083D0083DE1B43D34D6210FB68581E88
:101AF0007B6859680B469B000B4499000B44B0FB74
:101B0000F3F30133C3F30B03002B0CBF01230023BA
:101B1000DBB2002B01D0012322E07B689B68002B05
:101B20000ED1FB68581E7B6859680B465B000B445E
:101B3000B0FBF3F30133C3F30B0343F400430FE0B3
:101B4000FB68581E7B6859680B469B000B44990044
:101B50000B44B0FBF3F30133C3F30B0343F44043F3
:101B6000796809681343CB617B681B681B6823F0A5
:101B7000C0017B68DA697B681B6A1A437B681B6853
:101B80000A431A607B681B689B6823F4034323F0B5
:101B9000FF037A6811697A68D26811437A6812681B
:101BA0000B4393607B681B68DB6823F0FF017B6855
:101BB0005A697B689B691A437B681B680A43DA6031
:101BC0007B681B681A687B681B6842F001021A6018
:101BD0007B6800221A647B68202283F83D207B68A2
:101BE00000221A637B68002283F83E2000231846F7
:101BF0001037BD4680BD00BF80B58AB002AFF86027
:101C00007A603B600B467B81FFF7F4F9F8610123B2
:101C1000BB61FB6893F83D30DBB2202B40F01181B3
:101C2000FB690093192301228849F86800F012F932
:101C30000346002B01D0022304E1FB6893F83C30FB
:101C4000012B01D10223FDE0FB68012283F83C2037
:101C5000FB681B681B6803F00103012B07D0FB68BE
:101C60001B681A68FB681B6842F001021A60FB6877
:101C70001B681A68FB681B6822F400621A60FB6824
:101C8000242283F83D20FB6800221A64FB68704A16
:101C9000DA62FB681B681A68FB681B6842F4807292
:101CA0001A60FB6900933B6800224FF00111F8684D
:101CB00000F0D0F80346002B0DD0FB681B681B68B2
:101CC00003F48073B3F5807F03D1FB684FF4007297
:101CD0001A640323B6E07B89DBB21A46FB681B68F3
:101CE00002F0FE021A61FFF785F9F861FB681B68D4
:101CF0005B6903F00203022B0CBF01230023DBB25C
:101D0000FB75FB681B685B6903F48063B3F5806F48
:101D10000CBF01230023DBB2BB7525E0FFF76AF996
:101D20000246FB69D31A3A689A4202D33B68002BF9
:101D300003D1FB68A02283F83D20FB681B685B6928
:101D400003F00203022B0CBF01230023DBB2FB755F
:101D5000FB681B685B6903F48063B3F5806F0CBF9D
:101D600001230023DBB2BB75FB6893F83D30DBB287
:101D7000A02B05D0FB7D002B02D1BB7D002BCDD04D
:101D8000FB68202283F83D20FB681B685B6903F039
:101D90000203022B29D1FB681B681A68FB681B68C9
:101DA00042F400721A6000233B61FB681B685B69A8
:101DB0003B61FB681B689B693B613B69FB69009366
:101DC000192301222149F86800F044F80346002B4A
:101DD00001D0012336E0FB68202283F83D20FB6818
:101DE000002283F83C2000232CE0FB681B681A6863
:101DF000FB681B6842F400721A60FB681B686FF492
:101E000080625A61FB690093192301220F49F86827
:101E100000F020F80346002B01D0012312E0BB693B
:101E20000133BB61BA697B689A42FFF432AFFB6849
:101E3000202283F83D20FB68002283F83C20012308
:101E400000E0022318462037BD4680BD0200100086
:101E50000000FFFF80B584B000AFF860B9603B6060
:101E60001346FB7125E03B68B3F1FF3F21D0FFF73C
:101E7000C1F80246BB69D31A3A689A4202D33B685A
:101E8000002B16D1FB6800221A63FB68202283F81E
:101E90003D20FB68002283F83E20FB681B6C43F06A
:101EA0002002FB681A64FB68002283F83C200123AF
:101EB00023E0BB681B0CDBB2012B0DD1FB681B6858
:101EC0005B69DA43BB6813409BB2002B0CBF012354
:101ED0000023DBB21A460CE0FB681B689B69DA43FF
:101EE000BB6813409BB2002B0CBF01230023DBB265
:101EF0001A46FB799A42B6D0002318461037BD46E1
:101F000080BD0000F0B58FB00AAF78607B68002B11
:101F100001D1012318E17B681B68B3F1A04F03D006
:101F200087218B48FEF773FD7B681B68BB607B686D
:101F300093F8BD33DBB2002B06D17B68002283F817
:101F4000BC23786805F09CFE7B68032283F8BD23E0
:101F5000BB68DB6B03F48073002B02D17B6800222B
:101F60001A617B681B68184602F0D5FE7B681B6807
:101F70003B607E686D4606F110040FCC0FC50FCC98
:101F80000FC594E8030085E80300331D0ECB3868C5
:101F900002F0ACFD0346002B05D07B68022283F8DB
:101FA000BD230123D0E07B681B680021184602F0A6
:101FB000C3FE0023FB734AE0FA7B79681346DB001B
:101FC0009B1A9B000B443D3301221A70FA7B7968FF
:101FD0001346DB009B1A9B000B443C33FA7B1A70C0
:101FE000FA7BFB7B98B279681346DB009B1A9B0057
:101FF0000B44423302461A80FA7B79681346DB00B1
:102000009B1A9B000B443F3300221A70FA7B7968BD
:102010001346DB009B1A9B000B44443300221A60DA
:10202000FA7B79681346DB009B1A9B000B4448330C
:1020300000221A60FA7B79681346DB009B1A9B002A
:102040000B44503300221A60FB7B0133FB73FA7B95
:102050007B685B689A42AFD30023FB7344E0FA7B52
:1020600079681346DB009B1A9B000B4403F2FD13B7
:1020700000221A70FA7B79681346DB009B1A9B00DA
:102080000B4403F5FE73FA7B1A70FA7B79681346EA
:10209000DB009B1A9B000B4403F2FF1300221A7013
:1020A000FA7B79681346DB009B1A9B000B4403F50F
:1020B000017300221A60FA7B79681346DB009B1AD1
:1020C0009B000B4403F5027300221A60FA7B7968C7
:1020D0001346DB009B1A9B000B4403F5047300229C
:1020E0001A60FB7B0133FB73FA7B7B685B689A4267
:1020F000B5D37B681B683B607E686D4606F11004B3
:102100000FCC0FC50FCC0FC594E8030085E8030082
:10211000331D0ECB386802F05BFE0346002B05D062
:102120007B68022283F8BD2301230DE07B68002237
:1021300083F838207B68012283F8BD237B681B6805
:10214000184603F0D7FE002318461437BD46F0BDED
:1021500034EC000880B584B000AF78607B681B6801
:10216000FB607B6893F8BC33012B01D1022320E094
:102170007B68012283F8BC237B689B6A012B09D111
:102180007B689B69012B05D0FB689B6B43F4803215
:10219000FB689A637B681B68184602F0ABFD7B689E
:1021A0001B68184603F085FE7B68002283F8BC2379
:1021B000002318461037BD4680BD90B58DB000AFE6
:1021C00078607B681B683B623B6AFB617B681B68CD
:1021D000184603F043FF0346002B40F09D837B68C5
:1021E0001B68184603F0A7FE0346002B00F09383FC
:1021F0007B681B68184603F09EFE034603F002034B
:10220000022B07D17B681B685A697B681B6802F048
:1022100002025A617B681B68184603F08CFE034675
:1022200003F01003102B61D17B681B689A697B68EF
:102230001B6822F010029A613B6A1B6ABB61BB6992
:1022400003F00F021346DB009B1A9B0003F5FC739F
:102250007A68134404337B61BB695B0C03F00F03A2
:10226000022B24D1BA6947F6F0731340002B35D006
:102270007B69D968BB691B099BB2C3F30A039BB294
:102280001A46386A03F0C3FC7B69DA68BB691B092C
:10229000C3F30A031A447B69DA607B699A69BB69F4
:1022A0001B09C3F30A031A447B699A6116E0BB69F0
:1022B0005B0C03F00F03062B10D17B6803F57173E1
:1022C00008221946386A03F0A2FC7B699A69BB6947
:1022D0001B09C3F30A031A447B699A617B681B6874
:1022E0009A697B681B6842F010029A617B681B68E0
:1022F000184603F020FE034603F40023B3F5002F35
:102300006ED100237B627B681B68184603F026FEB3
:10231000B86262E0BB6A03F00103002B57D07B6810
:102320001B687A6AD2B21146184603F04BFE386138
:102330003B6903F00103002B0CD07B6A5A01FB6957
:10234000134403F530631A4601239360796A786871
:1023500000F098FD3B6903F00803002B0CD07B6A6A
:102360005A01FB69134403F530631A46082393604E
:10237000796A786800F092FE3B6903F01003002B45
:1023800008D07B6A5A01FB69134403F530631A468F
:10239000102393603B6903F02003002B08D07B6A75
:1023A0005A01FB69134403F530631A4620239360F6
:1023B0003B6903F40053002B09D07B6A5A01FB6987
:1023C000134403F530631A464FF4005393607B6A5D
:1023D00001337B62BB6A5B08BB62BB6A002B99D18D
:1023E0007B681B68184603F0A6FD034603F48023B0
:1023F000B3F5802F40F0C0807B681B68184603F05F
:10240000C7FDB86200237B62B2E0BB6A03F0010340
:10241000002B00F0A7807B681B687A6AD2B2114655
:10242000184603F0EDFD38613B6903F00103002B12
:1024300057D07B6A03F00F03012202FA03F3FB601B
:10244000FB6903F500635A6BFB68DB43F96901F52F
:10245000006113404B637B6A5A01FB69134403F527
:1024600010631A46012393607B681B69012B32D1EC
:1024700079687A6A1346DB009B1A9B000B44483349
:10248000196878687A6A1346DB009B1A9B0003443C
:1024900044331B68194478687A6A1346DB009B1A38
:1024A0009B000344483319607B6A002B13D1796881
:1024B0007A6A1346DB009B1A9B000B4450331B685F
:1024C000002B08D17B6818687B6803F571731A4686
:1024D000012103F0F5FD7B6ADBB21946786805F04F
:1024E00050FC3B6903F00803002B08D07B6A5A01BB
:1024F000FB69134403F510631A46082393603B6994
:1025000003F01003002B08D07B6A5A01FB691344C7
:1025100003F510631A46102393603B6903F04003F0
:10252000002B08D07B6A5A01FB69134403F5106342
:102530001A46402393603B6903F00203002B08D046
:102540007B6A5A01FB69134403F510631A460223A0
:1025500093603B6903F08003002B03D0796A7868AD
:1025600000F003FC7B6A01337B62BB6A5B08BB62E1
:10257000BB6A002B7FF449AF7B681B68184603F0E9
:10258000DAFC034603F00043B3F1004F22D1FB69AC
:1025900003F500635B68FA6902F5006223F001034A
:1025A00053607B6893F8F433012B08D17B680022D9
:1025B00083F8F4230021786800F00EFE02E07868CA
:1025C00005F04CFC7B681B685A697B681B6802F04D
:1025D00000425A617B681B68184603F0ACFC034656
:1025E00003F40063B3F5006F12D1FB6903F50063D8
:1025F0009B6803F00103012B02D1786805F008FC09
:102600007B681B685A697B681B6802F400625A6128
:102610007B681B68184603F08EFC034603F4805366
:10262000B3F5805F40F0C780FB6903F500635B682A
:10263000FA6902F5006223F0010353607B681B68AE
:102640001021184602F028FD0023FB6256E0FB6AC9
:102650005A01FB69134403F510631A464FF67F33A2
:102660009360FB6A5A01FB69134403F510631B680E
:10267000FA6A5101FA690A4402F5106223F4001360
:102680001360FB6A5A01FB69134403F510631B686E
:10269000FA6A5101FA690A4402F5106243F00063D4
:1026A0001360FB6A5A01FB69134403F530631A4651
:1026B0004FF67F339360FB6A5A01FB69134403F5BD
:1026C00030631B68FA6A5101FA690A4402F5306204
:1026D00023F400131360FB6A5A01FB69134403F5EA
:1026E00030631B68FA6A5101FA690A4402F53062E4
:1026F00043F000631360FB6A0133FB627B685B6835
:10270000FA6A9A42A3D3FB6903F50063DB69FA69AD
:1027100002F5006243F00113D3617B681B6B002B51
:1027200016D0FB6903F50063D3F88430FA6902F52B
:10273000006243F00B03C2F88430FB6903F50063C9
:102740005B6CFA6902F5006243F00B03536415E019
:10275000FB6903F500635B69FA6902F5006243F403
:10276000005343F02B035361FB6903F500631B69BE
:10277000FA6902F5006243F00B031361FB6903F58C
:1027800000631B68FA6902F5006223F4FE631360BC
:102790007B6818687B681B69D9B27B6803F5717325
:1027A0001A4603F08DFC7B681B685A697B681B68BE
:1027B00002F480525A617B681B68184603F0BBFB29
:1027C000034603F40053B3F5005F24D17B681B6814
:1027D000184603F051FC7B681B68184602F0B9FCF0
:1027E00003461A467B68DA607B681C6801F088FA49
:1027F00001467B68DB68DBB21A46204602F0D8F956
:10280000786805F0E6FA7B681B685A697B681B6884
:1028100002F400525A617B681B68184603F08BFB78
:10282000034603F00803082B0AD1786805F0C3FAC1
:102830007B681B685A697B681B6802F008025A6152
:102840007B681B68184603F076FB034603F480138D
:10285000B3F5801F0FD100237B627B6ADBB2194680
:10286000786805F01BFB7B681B685A697B681B68EE
:1028700002F480125A617B681B68184603F05BFB08
:10288000034603F40013B3F5001F0FD100237B624E
:102890007B6ADBB21946786805F0EEFA7B681B6844
:1028A0005A697B681B6802F400125A617B681B68D6
:1028B000184603F040FB034603F08043B3F1804F1A
:1028C0000AD1786805F0FCFA7B681B685A697B6856
:1028D0001B6802F080425A617B681B68184603F04F
:1028E0002AFB034603F00403042B15D17B681B6805
:1028F0005B68BB61BB6903F00403002B02D07868FE
:1029000005F0ECFA7B681B6859687B681B68BA693C
:102910000A435A6000E000BF3437BD4690BD80B521
:1029200082B000AF78600B46FB707B6893F8BC33D5
:10293000012B01D1022313E07B68012283F8BC2321
:102940007B68FA7883F838207B681B68FA78114630
:10295000184603F088FA7B68002283F8BC23002322
:1029600018460837BD4680BD80B584B000AF78609A
:10297000084611461A460346FB700B463B80134639
:10298000BB700023FB7297F90330002B0FDAFB7842
:1029900003F00F021346DB009B1A9B0038337A6862
:1029A00013440433FB60FB6801225A700FE0FB788C
:1029B00003F00F021346DB009B1A9B0003F5FC7328
:1029C0007A6813440433FB60FB6800225A70FB787A
:1029D00003F00F03DAB2FB681A703A88FB689A605A
:1029E000FB68BA78DA70FB685B78002B04D0FB6870
:1029F0001B789AB2FB68DA80BB78022B02D1FB68A5
:102A000000221A717B6893F8BC33012B01D1022399
:102A10000EE07B68012283F8BC237B681B68F968A1
:102A2000184602F0BBFB7B68002283F8BC23FB7ACC
:102A300018461037BD4680BD80B584B000AF7860C1
:102A40000B46FB7097F90330002B0FDAFB7803F08D
:102A50000F021346DB009B1A9B0038337A6813443D
:102A60000433FB60FB6801225A700FE0FB7803F02F
:102A70000F021346DB009B1A9B0003F5FC737A6878
:102A800013440433FB60FB6800225A70FB7803F0A8
:102A90000F03DAB2FB681A707B6893F8BC33012B22
:102AA00001D102230EE07B68012283F8BC237B68FE
:102AB0001B68F968184602F0F9FB7B68002283F86E
:102AC000BC23002318461037BD4680BD80B586B0B4
:102AD00000AFF8607A603B600B46FB72FB7A03F054
:102AE0000F021346DB009B1A9B0003F5FC73FA6888
:102AF000134404337B617B697A68DA607B693A68E6
:102B00005A617B6900229A617B6900225A70FB7AC4
:102B100003F00F03DAB27B691A70FB681B69012BA3
:102B200002D17A687B691A61FB7A03F00F03002BEC
:102B300009D1FB681868FB681B69DBB21A46796922
:102B400002F0D4FE08E0FB681868FB681B69DBB282
:102B50001A46796902F086FC002318461837BD46EC
:102B600080BD80B586B000AFF8607A603B600B46F0
:102B7000FB72FB7A03F00F021346DB009B1A9B00EB
:102B80003833FA68134404337B617B697A68DA600E
:102B90007B693A685A617B6900229A617B690122EC
:102BA0005A70FB7A03F00F03DAB27B691A70FB6884
:102BB0001B69012B02D17A687B691A61FB7A03F0E9
:102BC0000F03002B09D1FB681868FB681B69DBB297
:102BD0001A46796902F08AFE08E0FB681868FB680B
:102BE0001B69DBB21A46796902F03CFC00231846E7
:102BF0001837BD4680BD80B584B000AF78600B4605
:102C0000FB70FB7803F00F027B685B689A4201D986
:102C1000012350E097F90330002B0FDAFB7803F023
:102C20000F021346DB009B1A9B0038337A6813446B
:102C30000433FB60FB6801225A700DE0FA781346FA
:102C4000DB009B1A9B0003F5FC737A681344043382
:102C5000FB60FB6800225A70FB6801229A70FB78C7
:102C600003F00F03DAB2FB681A707B6893F8BC3389
:102C7000012B01D102231EE07B68012283F8BC23D3
:102C80007B681B68F968184603F019F8FB7803F0B5
:102C90000F03002B0AD17B6818687B681B69D9B2C7
:102CA0007B6803F571731A4603F00AFA7B68002209
:102CB00083F8BC23002318461037BD4680BD80B57D
:102CC00084B000AF78600B46FB70FB7803F00F0216
:102CD0007B685B689A4201D9012342E097F903308F
:102CE000002B0FDAFB7803F00F021346DB009B1A70
:102CF0009B0038337A6813440433FB60FB6801227D
:102D00005A700FE0FB7803F00F021346DB009B1AAA
:102D10009B0003F5FC737A6813440433FB60FB6883
:102D200000225A70FB6800229A70FB7803F00F03B0
:102D3000DAB2FB681A707B6893F8BC33012B01D1BF
:102D400002230EE07B68012283F8BC237B681B68AA
:102D5000F968184603F021F87B68002283F8BC2349
:102D6000002318461037BD4680BD80B58AB002AF3B
:102D7000786039607B681B687B617B693B613A687E
:102D80001346DB009B1A9B0038337A6813440433E4
:102D9000FB60FB689A69FB685B699A4201D9012371
:102DA0006CE0FB685A69FB689B69D31AFB61FB689E
:102DB0009B68FA699A4202D9FB689B68FB61FB69D0
:102DC00003339B08BB612BE0FB685A69FB689B6976
:102DD000D31AFB61FB689B68FA699A4202D9FB68C7
:102DE0009B68FB61FB6903339B08BB61FB68D96887
:102DF0003B68DAB2FB6998B27B681B69DBB200936F
:102E00000346786902F0C5FEFB68DA68FB691A447C
:102E1000FB68DA60FB689A69FB691A44FB689A618F
:102E20003B685A013B69134403F510639B699BB2ED
:102E3000BA699A4209D8FB689A69FB685B699A4249
:102E400003D2FB685B69002BBED1FB685A69FB6843
:102E50009B699A4211D83B6803F00F03012202FAE2
:102E600003F3BB603B6903F500635A6BBB68DB434C
:102E7000396901F5006113404B6300231846203780
:102E8000BD4680BD80B586B000AF786039607B6894
:102E90001B687B617B693B617B693C3304331B6846
:102EA000FB603B685A013B69134403F530639B6840
:102EB000BB607B681B69012B40F0A080BB6803F0FE
:102EC0000803002B15D0FB68724A934240F2DD8064
:102ED000BB6803F40043002B00F0D7803B685A0125
:102EE0003B69134403F530631A464FF40043936083
:102EF000CBE0BB6803F02003002B09D03B685A01EC
:102F00003B69134403F530631A4620239360BCE009
:102F1000BB6803F02803002B40F0B780FB685D4AD4
:102F200093420FD9BB6803F40043002B0AD03B68DF
:102F30005A013B69134403F530631A464FF40043CA
:102F40009360A2E079683A681346DB009B1A9B0005
:102F50000B4403F501731A683B6859013B690B4444
:102F600003F530631B69C3F31203D11A78683A681A
:102F70001346DB009B1A9B00034403F5057319609D
:102F800079683A681346DB009B1A9B000B4403F5F3
:102F90000273196878683A681346DB009B1A9B0035
:102FA000034403F501731B68194478683A681346B3
:102FB000DB009B1A9B00034403F5027319603B6816
:102FC000002B14D179683A681346DB009B1A9B00EA
:102FD0000B4403F504731B68002B08D17B68186849
:102FE0007B6803F571731A46012103F069F83B68A9
:102FF000DBB21946786804F0A9FE46E0FB68264A71
:10300000934224D1BB6803F40043002B0AD03B68F1
:103010005A013B69134403F530631A464FF40043E9
:10302000936032E0BB6803F02003002B08D03B68BC
:103030005A013B69134403F530631A462023936019
:103040003B68DBB21946786804F080FE1DE03B68FF
:10305000002B14D179683A681346DB009B1A9B0059
:103060000B4403F504731B68002B08D17B681868B8
:103070007B6803F571731A46002103F021F83B6861
:10308000DBB21946786804F061FE00231846183751
:10309000BD4680BD0A30544F0A31544F80B586B0CA
:1030A00000AF786039607B681B687B617B693B613E
:1030B0007B693C3304331B68FB603B685A013B6906
:1030C000134403F530639B68BB60FB68154A934269
:1030D0000ED9BB6803F40043002B09D03B685A01AA
:1030E0003B69134403F530631A464FF40043936081
:1030F000786804F019FEFB680A4A93420CD97B6891
:103100001B69012B08D17B6818687B6803F5717314
:103110001A46012102F0D4FF002318461837BD4695
:1031200080BD00BF0A30544F80B485B000AF7860D6
:103130000B46FB7013463B807B681B685B6ABB6079
:10314000FB78002B07D13B8819047B681B68BA68A1
:103150000A439A6228E07B681B689B6A1B0CBA686A
:103160001344BB600023FB730DE07B681A68FB7B94
:1031700040339B0013445B681B0CBA681344BB606C
:10318000FB7B0133FB73FA7BFB78013B9A42ECD368
:103190003B8818047B681968FB78013BBA680243D6
:1031A00040339B000B445A60002318461437BD4639
:1031B0005DF8047B704780B483B000AF78600B4645
:1031C0007B807B681B687A885A62002318460C371C
:1031D000BD465DF8047B704780B483B000AF786073
:1031E0000B46FB7000BF0C37BD465DF8047B704793
:1031F00080B586B000AF78607B68002B01D10123D9
:1032000014E37B681B680F2B03D9E8219748FDF76F
:10321000FEFB7B681B6803F00103002B00F0888035
:103220007B685B68002B0DD07B685B68B3F5803FE3
:1032300008D07B685B68B3F5A02F03D0ED218B48E5
:10324000FDF7E5FB8A4B9B6803F00C03042B0CD0C5
:10325000874B9B6803F00C03082B12D1844B5B68EF
:1032600003F48003B3F5800F0BD1814B1B6803F48B
:103270000033002B5BD07B685B68002B57D10123A8
:10328000D4E27B685B68B3F5803F06D1784B1B685E
:10329000774A43F4803313601DE07B685B68B3F5C5
:1032A000A02F0CD1724B1B68714A43F4802313602A
:1032B0006F4B1B686E4A43F4803313600BE06C4B1A
:1032C0001B686B4A23F480331360694B1B68684AA0
:1032D00023F4802313607B685B68002B13D0FDF719
:1032E00089FE386108E0FDF785FE02463B69D31A86
:1032F000642B01D9032399E25D4B1B6803F400336F
:10330000002BF0D014E0FDF775FE386108E0FDF702
:1033100071FE02463B69D31A642B01D9032385E26F
:10332000534B1B6803F40033002BF0D100E000BFC7
:103330007B681B6803F00203002B79D07B68DB6895
:10334000002B08D07B68DB68012B04D040F21F11F2
:103350004648FDF75CFB7B681B691F2B04D94FF4C3
:1033600090714248FDF753FB414B9B6803F00C03FF
:10337000002B0BD03E4B9B6803F00C03082B1CD199
:103380003B4B5B6803F48003002B16D1384B1B6862
:1033900003F00203002B05D07B68DB68012B01D012
:1033A000012343E2324B1B6823F0F8027B681B6960
:1033B000DB002F4913430B603AE07B68DB68002B8E
:1033C00020D02C4B01221A60FDF714FE386108E072
:1033D000FDF710FE02463B69D31A022B01D90323E5
:1033E00024E2234B1B6803F00203002BF0D0204B98
:1033F0001B6823F0F8027B681B69DB001C49134340
:103400000B6015E01B4B00221A60FDF7F3FD3861DD
:1034100008E0FDF7EFFD02463B69D31A022B01D904
:10342000032303E2124B1B6803F00203002BF0D1CD
:103430007B681B6803F00803002B45D07B685B6941
:10344000002B08D07B685B69012B04D04FF4B0716E
:103450000648FDF7DCFA7B685B69002B1ED0064B43
:1034600001221A60FDF7C6FD386110E06CEC00081F
:103470000038024000004742800E4742FDF7BAFD87
:1034800002463B69D31A022B01D90323CEE15E4BDE
:103490005B6F03F00203002BF0D015E05B4B0022C2
:1034A0001A60FDF7A7FD386108E0FDF7A3FD0246AD
:1034B0003B69D31A022B01D90323B7E1524B5B6F4F
:1034C00003F00203002BF0D17B681B6803F00403B8
:1034D000002B00F0B0800023FB757B689B68002BFD
:1034E0000CD07B689B68012B08D07B689B68052B00
:1034F00004D04FF4C6714648FDF789FA424B1B6C65
:1035000003F08053002B0FD10023BB603E4B1B6C9C
:103510003D4A43F0805313643B4B1B6C03F08053D4
:10352000BB60BB680123FB753A4B1B6803F48073D7
:10353000002B18D1374B1B68364A43F48073136055
:10354000FDF758FD386108E0FDF754FD02463B6980
:10355000D31A022B01D9032368E12E4B1B6803F415
:103560008073002BF0D07B689B68012B06D1264B23
:103570001B6F254A43F0010313671CE07B689B68BF
:10358000052B0CD1204B1B6F1F4A43F0040313671C
:103590001D4B1B6F1C4A43F0010313670BE01A4BD2
:1035A0001B6F194A23F001031367174B1B6F164A51
:1035B00023F0040313677B689B68002B15D0FDF78D
:1035C00019FD38610AE0FDF715FD02463B69D31A83
:1035D00041F28832934201D9032327E10A4B1B6F42
:1035E00003F00203002BEED01CE0FDF703FD386171
:1035F00012E0FDF7FFFC02463B69D31A41F2883224
:10360000934209D9032311E100380240800E47425A
:103610006CEC000800700040864B1B6F03F0020347
:10362000002BE6D1FB7D012B05D1824B1B6C814A1F
:1036300023F0805313647B689B69002B0CD07B685C
:103640009B69012B08D07B689B69022B04D040F258
:10365000CF117948FDF7DBF97B689B69002B00F0FF
:10366000E480744B9B6803F00C03082B00F0A580EA
:103670007B689B69022B40F089807B68DB69002BAB
:1036800009D07B68DB69B3F5800F04D04FF4EC718F
:103690006948FDF7BCF97B681B6A3F2B04D940F2EF
:1036A000D9116548FDF7B3F97B685B6A312B04D902
:1036B0007B685B6AB3F5D87F04D94FF4ED715E483F
:1036C000FDF7A5F97B689B6A022B10D07B689B6A8B
:1036D000042B0CD07B689B6A062B08D07B689B6A06
:1036E000082B04D040F2DB115348FDF790F97B68BA
:1036F000DB6A012B03D97B68DB6A0F2B04D94FF4FB
:10370000EE714D48FDF783F94C4B00221A60FDF72E
:1037100071FC386108E0FDF76DFC02463B69D31A85
:10372000022B01D9032381E0424B1B6803F0007395
:10373000002BF0D17B68DA697B681B6A1A437B68CF
:103740005B6A9B011A437B689B6A5B08013B1B0415
:103750001A437B68DB6A1B06364913434B60374BC1
:1037600001221A60FDF746FC386108E0FDF742FCD3
:1037700002463B69D31A022B01D9032356E02D4B95
:103780001B6803F00073002BF0D04EE02B4B00229F
:103790001A60FDF72FFC386108E0FDF72BFC0246AC
:1037A0003B69D31A022B01D903233FE0214B1B684D
:1037B00003F00073002BF0D137E07B689B69012B8D
:1037C00001D1012332E01B4B5B68FB607B689B6986
:1037D000012B28D0FB6803F480027B68DB699A42E6
:1037E00021D1FB6803F03F027B681B6A9A421AD121
:1037F000FA6847F6C07313407A68526A920193429E
:1038000011D1FB6803F440327B689B6A5B08013B83
:103810001B049A4207D1FB6803F070627B68DB6A85
:103820001B069A4201D0012300E0002318461837F6
:10383000BD4680BD003802406CEC00086000474285
:1038400080B584B000AF786039607B68002B01D10F
:10385000012374E17B681B68002B03D07B681B6825
:103860000F2B04D94FF417717B48FDF7D0F83B6854
:10387000002B19D03B68012B16D03B68022B13D0CC
:103880003B68032B10D03B68042B0DD03B68052B05
:103890000AD03B68062B07D03B68072B04D040F2C8
:1038A0005D216D48FDF7B3F86C4B1B6803F007030F
:1038B0003A689A420CD9694B3A68D2B21A70674B8F
:1038C0001B6803F007033A689A4201D0012336E1EE
:1038D0007B681B6803F00203002B49D07B681B68E0
:1038E00003F00403002B05D05D4B9B685C4A43F456
:1038F000E05393607B681B6803F00803002B05D03E
:10390000574B9B68564A43F4604393607B689B68BF
:10391000002B24D07B689B68802B20D07B689B6821
:10392000902B1CD07B689B68A02B18D07B689B6871
:10393000B02B14D07B689B68C02B10D07B689B6831
:10394000D02B0CD07B689B68E02B08D07B689B68F1
:10395000F02B04D04FF420713F48FDF758F8404B4E
:103960009B6823F0F0027B689B683D4913438B60A2
:103970007B681B6803F00103002B59D07B685B68F0
:10398000002B10D07B685B68012B0CD07B685B68D8
:10399000022B08D07B685B68032B04D040F28721A0
:1039A0002D48FDF734F87B685B68012B07D12C4B61
:1039B0001B6803F40033002B19D10123BFE07B689F
:1039C0005B68022B03D07B685B68032B07D1244B19
:1039D0001B6803F00073002B09D10123AFE0204BDB
:1039E0001B6803F00203002B01D10123A7E01C4B4D
:1039F0009B6823F003027B685B68194913438B6063
:103A0000FDF7F8FAF8600AE0FDF7F4FA0246FB6801
:103A1000D31A41F28832934201D903238FE0104B2D
:103A20009B6803F00C027B685B689B009A42EBD1B9
:103A30000A4B1B6803F007033A689A4212D2074BFD
:103A40003A68D2B21A70054B1B6803F007033A6854
:103A50009A4207D0012372E06CEC0008003C02405F
:103A6000003802407B681B6803F00403002B25D05C
:103A70007B68DB68002B18D07B68DB68B3F5805F60
:103A800013D07B68DB68B3F5A05F0ED07B68DB6882
:103A9000B3F5C05F09D07B68DB68B3F5E05F04D0A5
:103AA00040F2C5212848FCF7B2FF284B9B6823F45D
:103AB000E0527B68DB68254913438B607B681B6899
:103AC00003F00803002B26D07B681B69002B18D05D
:103AD0007B681B69B3F5805F13D07B681B69B3F506
:103AE000A05F0ED07B681B69B3F5C05F09D07B680F
:103AF0001B69B3F5E05F04D04FF433711248FCF753
:103B000086FF124B9B6823F460427B681B69DB00D5
:103B10000E4913438B6000F02DF802460B4B9B6857
:103B20001B0903F00F030A49CB5C22FA03F3094A8D
:103B30001360094B1B681846FDF718FA0023184656
:103B40001037BD4680BD00BF6CEC00080038024055
:103B5000B8FB0008000000200400002080B400AF83
:103B6000034B01221A6000BFBD465DF8047B70471D
:103B70004C0047422DE9B04F90B000AF00237B636B
:103B80000023FB6300233B630023BB63594B9B680B
:103B900003F00C03082B0DD0082B00F2A180002BA2
:103BA00002D0042B03D09BE0534BBB639BE0534BF1
:103BB000BB6398E04F4B5B6803F03F037B634D4B67
:103BC0005B6803F48003002B28D04A4B5B689B0999
:103BD00000223B627A623B6AC3F308000021474B34
:103BE00003FB01F2002300FB03F31344434AA0FB51
:103BF0000212FA620A46BA62FA6A1344FB627B6BEB
:103C00000022BB61FA61D7E90623D7E90A01FCF774
:103C100037FB02460B461346FB6353E0354B5B68AC
:103C20009B0900223B617A613B69C3F3080A4FF0AC
:103C3000000B52465B464FF000004FF00001590167
:103C400041EAD261500102460B46B2EB0A0863EB2F
:103C50000B094FF000024FF000034FEA891343EACB
:103C600098634FEA8812B2EB080463EB09054FF042
:103C700000024FF00003EB0043EA5473E2001446E5
:103C80001D4614EB0A033B6045EB0B037B604FF0D2
:103C900000024FF00003D7E9004529468B02214678
:103CA00043EA915321468A02104619467B6B002253
:103CB000BB60FA60D7E90223FCF7E2FA02460B4642
:103CC0001346FB630B4B5B681B0C03F003030133D0
:103CD0005B003B63FA6B3B6BB2FBF3F3BB6302E04D
:103CE000054BBB6300BFBB6B18464037BD46BDE804
:103CF000B08F00BF003802400024F400001BB70062
:103D000080B400AF034B1B681846BD465DF8047BCA
:103D1000704700BF0000002080B500AFFFF7F0FF44
:103D20000246054B9B689B0A03F007030349CB5CE3
:103D300022FA03F3184680BD00380240C8FB000891
:103D400080B500AFFFF7DCFF0246054B9B685B0BBD
:103D500003F007030349CB5C22FA03F3184680BD46
:103D600000380240C8FB000880B500AF064BDB6896
:103D700003F08003802B04D100F00AF8034B80226B
:103D80001A7000BF80BD00BF003802400E380240EC
:103D900080B400AF00BFBD465DF8047B70470000F3
:103DA00080B582B000AF78607B68002B01D1012321
:103DB00084E17B681B68724A934213D07B681B685E
:103DC000704A93420ED07B681B686F4A934209D0B9
:103DD0007B681B686D4A934204D04FF4A1716C4814
:103DE000FCF715FE7B685B68002B09D07B685B687D
:103DF000B3F5827F04D040F243116548FCF707FE1B
:103E00007B689B68002B0ED07B689B68B3F5806F46
:103E100009D07B689B68B3F5004F04D04FF4A271C2
:103E20005B48FCF7F4FD7B68DB68B3F5006F08D0F6
:103E30007B68DB68002B04D040F245115448FCF746
:103E4000E6FD7B689B69B3F5007F0DD07B689B69BD
:103E5000002B09D07B689B69B3F5802F04D04FF409
:103E6000A3714B48FCF7D3FD7B68DB69002B20D0A6
:103E70007B68DB69082B1CD07B68DB69102B18D0B2
:103E80007B68DB69182B14D07B68DB69202B10D092
:103E90007B68DB69282B0CD07B68DB69302B08D072
:103EA0007B68DB69382B04D040F247113848FCF7B7
:103EB000AEFD7B681B6A002B08D07B681B6A802BD9
:103EC00004D04FF4A4713248FCF7A1FD7B685B6A13
:103ED000002B08D07B685B6A102B04D040F249119C
:103EE0002B48FCF794FD7B685B6A002B52D17B6802
:103EF0001B69002B08D07B681B69022B04D04FF490
:103F0000A6712348FCF783FD7B685B69002B08D012
:103F10007B685B69012B04D040F24D111C48FCF713
:103F200076FD7B685B68B3F5827F25D17B68DB69B2
:103F3000002B5AD07B68DB69082B56D07B68DB6985
:103F4000102B52D07B68DB69182B4ED07B68DB6965
:103F5000202B4AD07B68DB69282B46D07B68DB6945
:103F6000302B42D07B68DB69382B3ED040F25111B8
:103F70000748FCF74CFD38E07B680022DA6134E04A
:103F80000030014000380040003C00400034014057
:103F9000A4EC00087B68DB69002B20D07B68DB6920
:103FA000082B1CD07B68DB69102B18D07B68DB6981
:103FB000182B14D07B68DB69202B10D07B68DB6961
:103FC000282B0CD07B68DB69302B08D07B68DB6941
:103FD000382B04D040F25B113A48FCF718FD7B689F
:103FE00000221A617B6800225A617B6800229A6273
:103FF0007B6893F85130DBB2002B06D17B6800223E
:1040000083F850207868FCF743FD7B68022283F830
:1040100051207B681B681A687B681B6822F040028D
:104020001A607B685B6803F482727B689B6803F4A8
:1040300004431A437B68DB6803F400631A437B681C
:104040001B6903F002031A437B685B6903F00103F9
:104050001A437B689B6903F400731A437B68DB692E
:1040600003F038031A437B681B6A03F0800342EABB
:1040700003017B689B6A03F400527B681B680A4358
:104080001A607B689B691B0C03F004017B685B6A08
:1040900003F010027B681B680A435A607B681B6848
:1040A000DA697B681B6822F40062DA617B680022AF
:1040B0005A657B68012283F851200023184608378F
:1040C000BD4680BDA4EC000880B582B000AF78602A
:1040D0007B68002B01D10123A0E07B689B69002B4A
:1040E0002CD07B681B684F4A93420ED07B681B68BC
:1040F0004D4A934209D07B681B684C4A934204D0D6
:104100004FF4B9714A48FCF782FC7B689B69002B2D
:1041100028D07B689B69B3F5807F23D07B689B693F
:10412000B3F5007F1ED07B689B69B3F5407F19D043
:1041300040F273113E48FCF76AFC13E07B681B6891
:10414000384A93420ED07B681B68374A934209D0A5
:104150007B681B68354A934204D040F2771134489B
:10416000FCF755FC7B689B68002B09D07B689B683B
:10417000B3F5805F04D040F279112D48FCF747FC7D
:104180007B68DB69002B09D07B68DB69B3F5004FE6
:1041900004D04FF4BD712648FCF739FC7B6893F8D6
:1041A0003D30DBB2002B06D17B68002283F83C2037
:1041B0007868FCF74BFE7B68242283F83D207B68FF
:1041C0001B68DA687B681B6822F40052DA60786842
:1041D00000F0D2F97B681B681A697B681B6822F4BF
:1041E00090421A617B681B685A697B681B6822F0E1
:1041F0002A025A617B681B68DA687B681B6842F494
:104200000052DA607B6800221A647B68202283F8FF
:104210003D207B68202283F83E2000231846083783
:10422000BD4680BD00100140004400400014014024
:10423000DCEC000880B58AB002AFF860B9603B6082
:104240001346FB8000237B61FB6893F83D30DBB2B3
:10425000202B7CD1BB68002B02D0FB88002B01D126
:10426000012375E0FB6893F83C30012B01D1022358
:104270006EE0FB68012283F83C20FB6800221A6490
:10428000FB68212283F83D20FCF7B4FE7861FB68CF
:10429000FA889A84FB68FA88DA84FB689B68B3F52D
:1042A000805F08D1FB681B69002B04D10023FB61F0
:1042B000BB68BB6103E0BB68FB610023BB61FB68BB
:1042C000002283F83C202AE03B6800937B690022AF
:1042D0008021F86800F0E2F80346002B01D00323A8
:1042E00036E0FB69002B0BD1BB691B881A46FB68C3
:1042F0001B68C2F308025A60BB690233BB6107E066
:10430000FB691A78FB681B685A60FB690133FB6123
:10431000FB68DB8C9BB2013B9AB2FB68DA84FB68DA
:10432000DB8C9BB2002BCFD13B6800937B690022D2
:104330004021F86800F0B2F80346002B01D00323B7
:1043400006E0FB68202283F83D20002300E00223E2
:1043500018462037BD4680BD80B58AB002AFF860F0
:10436000B9603B601346FB8000237B61FB6893F8D8
:104370003E30DBB2202B40F08C80BB68002B02D09B
:10438000FB88002B01D1012384E0FB6893F83C30CB
:10439000012B01D102237DE0FB68012283F83C2040
:1043A000FB6800221A64FB68222283F83E20FB6827
:1043B00000221A63FCF71EFE7861FB68FA889A8572
:1043C000FB68FA88DA85FB689B68B3F5805F08D1E3
:1043D000FB681B69002B04D10023FB61BB68BB6138
:1043E00003E0BB68FB610023BB61FB68002283F82C
:1043F0003C2043E03B6800937B6900222021F86861
:1044000000F04CF80346002B01D0032342E0FB6987
:10441000002B0CD1FB681B685B689BB2C3F30803DD
:104420009AB2BB691A80BB690233BB611FE0FB68AB
:104430009B68B3F5805F07D0FB689B68002B0AD1AF
:10444000FB681B69002B06D1FB681B685B68DAB24E
:10445000FB691A7008E0FB681B685B68DBB203F05D
:104460007F03DAB2FB691A70FB690133FB61FB68F9
:10447000DB8D9BB2013B9AB2FB68DA85FB68DB8D72
:104480009BB2002BB6D1FB68202283F83E2000238C
:1044900000E0022318462037BD4680BD80B590B0AD
:1044A00000AFF860B9603B601346FB7150E0BB6C35
:1044B000B3F1FF3F4CD0BB6C002B07D0FCF79AFD4B
:1044C00002463B68D31ABA6C9A4241D2FB681B6819
:1044D0000C33BB62BB6A53E8003F7B627B6A23F408
:1044E000D073FB63FB681B680C33FA6B7A633B6326
:1044F000396B7A6B41E80023FB62FB6A002BE5D144
:10450000FB681B6814337B617B6953E8003F3B61A8
:104510003B6923F00103BB63FB681B681433BA6B70
:104520003A62FB61F9693A6A41E80023BB61BB6901
:10453000002BE5D1FB68202283F83D20FB68202278
:1045400083F83E20FB68002283F83C2003230FE021
:10455000FB681B681A68BB681340BA689A420CBFB4
:1045600001230023DBB21A46FB799A429FD0002335
:1045700018464037BD4680BD2DE9B04FC0B000AFF2
:10458000C7F8F400D7F8F4305A68CF4B9A4204D9F0
:1045900040F65661CD48FCF73AFAD7F8F430DB68BC
:1045A000002B0AD0D7F8F430DB68B3F5005F04D0F5
:1045B00040F65761C548FCF72AFAD7F8F4301B6972
:1045C000002B10D0D7F8F4301B69B3F5806F0AD0F8
:1045D000D7F8F4301B69B3F5C06F04D040F65861CA
:1045E000BA48FCF714FAD7F8F4305A694FF6F37367
:1045F0001340002B04D1D7F8F4305B69002B04D1B1
:1046000040F65961B148FCF702FAD7F8F4301B685C
:104610001B6923F44050D7F8F430D968D7F8F43048
:104620001A6840EA01031361D7F8F4309A68D7F8A2
:10463000F4301B691A43D7F8F4305B691A43D7F892
:10464000F430DB691343C7F8F830D7F8F4301B684F
:10465000DB6823F4164121F00C01D7F8F4301A6816
:10466000D7F8F8300B43D360D7F8F4301B685B6998
:1046700023F44070D7F8F4309969D7F8F4301A6809
:1046800040EA01035361D7F8F4301A68904B9A421C
:1046900005D0D7F8F4301A688E4B9A4204D1FFF750
:1046A0004FFBC7F8FC0003E0FFF736FBC7F8FC0040
:1046B000D7F8F430DB69B3F5004F40F00F81D7F83D
:1046C000FC300022C7F8E830C7F8EC20D7E93A45BB
:1046D00022462B469118B9655B41FB65D7E9162345
:1046E000214612EB0108294643EB01094FF0000275
:1046F0004FF000034FEAC90343EA58734FEAC80278
:1047000090469946234618EB0303C7F8E0302B4642
:1047100049EB0303C7F8E430D7F8F4305B680022B4
:10472000C7F8D830C7F8DC20D7E936120B46DB18BB
:104730003B65134642EB03037B65D7E91423D7E9B6
:104740003801FBF79DFD02460B46634BA3FB02239A
:104750005B091C01D7F8FC300022C7F8D030C7F83D
:10476000D420D7E9348942464B469118B9645B415D
:10477000FB64D7E91223414612EB010A494643EB99
:10478000010B4FF000024FF000034FEACB0343EA66
:104790005A734FEACA0292469B4643461AEB0303FA
:1047A000C7F8C8304B464BEB0303C7F8CC30D7F8FB
:1047B000F4305B680022C7F8C030C7F8C420D7E9DE
:1047C00030120B46DB183B64134642EB03037B6459
:1047D000D7E91023D7E93201FBF752FD02460B4619
:1047E00011463D4BA3FB01235B09642202FB03F34B
:1047F000CB1ADB0003F13202374BA3FB02235B0928
:104800005B0003F4F8731C44D7F8FC300022C7F8AF
:10481000B830C7F8BC20D7E92E8942464B469118DC
:10482000B9635B41FB63D7E90E23414651183963F5
:1048300049464B417B634FF000024FF00003D7E93C
:104840000CAB5946CB00514643EA51735146CA005E
:1048500010461946034642469B18C7F8B0304B46EF
:104860000A4642EB0303C7F8B430D7F8F4305B686C
:104870000022C7F8A830C7F8AC20D7E92A120B46A7
:10488000DB18BB62134642EB0303FB62D7E90A2342
:10489000D7E92C01FBF7F4FC02460B460E4BA3FBB9
:1048A00002135B09642101FB03F3D31ADB003233EB
:1048B000094AA2FB03235B0903F00702D7F8F4308F
:1048C0001B6822449A6008E1A037A000DCEC0008D5
:1048D00000100140001401401F85EB51D7F8FC3057
:1048E0000022C7F8A030C7F8A420D7E9288942469B
:1048F0004B46911839625B417B62D7E908234146F8
:104900005418494643EB01054FF000024FF00003F5
:10491000EB0043EA5473E20014461D464346E31895
:10492000C7F898304B4645EB0303C7F89C30D7F8DF
:10493000F4305B680022C7F89030C7F894204FF03D
:1049400000024FF00003D7E9244529468B00214699
:1049500043EA917321468A00D7E92601FBF790FCD0
:1049600002460B46604BA3FB02235B091C01D7F8F0
:10497000FC300022C7F88830C7F88C20D7E922899C
:1049800042464B469118B9615B41FB61D7E906236A
:1049900041465118396149464B417B614FF0000255
:1049A0004FF00003D7E904AB5946CB00514643EA28
:1049B00051735146CA0010461946034642469B1899
:1049C000C7F880304B460A4642EB0303C7F88430F1
:1049D000D7F8F4305B680022BB67FA674FF000023B
:1049E0004FF00003D7E91E8949468B00414643EA50
:1049F000917341468A00D7E92001FBF741FC02464A
:104A00000B46394BA3FB02135B09642101FB03F343
:104A1000D31A1B013233344AA2FB03235B0903F090
:104A2000F0031C44D7F8FC3000223B677A67D7E9D3
:104A30001C8942464B469118B9605B41FB60D7E93F
:104A4000022341465118396049464B417B604FF083
:104A500000024FF00003D7E900AB5946CB005146A6
:104A600043EA51735146CA0010461946034642466E
:104A70009B18BB664B460A4642EB0303FB66D7F81E
:104A8000F4305B6800223B667A664FF000024FF01C
:104A90000003D7E9188949468B00414643EA9173E0
:104AA00041468A00D7E91A01FBF7EAFB02460B46AA
:104AB0000D4BA3FB02135B09642101FB03F3D31A23
:104AC0001B013233084AA2FB03235B0903F00F02E8
:104AD000D7F8F4301B6822449A6000BF07F580774E
:104AE000BD46BDE8B08F00BF1F85EB5184B080B5D7
:104AF00084B000AF786007F11C0080E80E003B6BCB
:104B0000012B22D17B689B6B23F480327B689A63F4
:104B10007B68DB6823F4840323F040037A68D36066
:104B20007B68DB6823F440127B68DA60FB6C012B46
:104B300005D17B68DB6843F480127B68DA607868B3
:104B400001F01CFB0346FB731AE07B68DB6843F053
:104B500040027B68DA60786801F010FB0346FB7363
:104B60003B6C002B06D17B689B6B43F480327B68E7
:104B70009A6305E07B689B6B23F480327B689A63C1
:104B8000BB6A012B0BD17B689B6843F006027B68F4
:104B90009A607B689B6843F020027B689A60FB7B8D
:104BA00018461037BD46BDE8804004B0704700008D
:104BB00080B487B000AFF860B9601346FB71FB7931
:104BC000022B65D1BB68414A934206D9BB68404A73
:104BD000934202D20F237B6162E0BB683C4A93425E
:104BE00006D3BB683B4A934202D20E237B6157E057
:104BF000BB68384A934206D3BB68374A934202D215
:104C00000D237B614CE0BB68334A934206D3BB68FB
:104C1000324A934202D80C237B6141E0BB682F4AA1
:104C2000934206D9BB682E4A934202D80B237B617C
:104C300036E0BB682A4A934206D9BB68294A9342A8
:104C400002D80A237B612BE0BB68264A934206D92F
:104C5000BB68254A934202D209237B6120E0BB68EE
:104C6000214A934206D3BB68204A934202D80823C4
:104C70007B6115E0BB681D4A934206D9BB681C4A9C
:104C8000934202D207237B610AE006237B6107E09F
:104C9000FB79002B02D109237B6101E009237B61B1
:104CA000FB68DB6823F47052FB68DA60FB68DA6843
:104CB0007B699B0203F470531A43FB68DA6000239C
:104CC00018461C37BD465DF8047B7047BFACD80062
:104CD000C0E1E4000024F400807306019F491A013A
:104CE000FF2C31013FA44C0100366E011FABA60121
:104CF0000048E80180B483B000AF78607B689B68AF
:104D000043F001027B689A60002318460C37BD46C9
:104D10005DF8047B704780B483B000AF78607B6837
:104D20009B6823F001027B689A60002318460C37C9
:104D3000BD465DF8047B704780B584B000AF7860F5
:104D40000B46FB700023FB607B68DB6823F0C042EE
:104D50007B68DA60FB78012B15D17B68DB6843F058
:104D600000527B68DA600120FCF750F9FB680133E0
:104D7000FB60786801F072F90346012B1ED0FB68D6
:104D8000312BF0D91AE0FB78002B15D17B68DB685A
:104D900043F080427B68DA600120FCF737F9FB685A
:104DA0000133FB60786801F059F90346002B05D008
:104DB000FB68312BF0D901E0012305E0FB68322BC1
:104DC00001D1012300E0002318461037BD4680BD05
:104DD00084B080B586B000AF786007F1240080E829
:104DE0000E000023FB757B68FB6000233B6109E03C
:104DF0007A683B6940339B00134400225A603B6948
:104E000001333B613B690E2BF2D9FB6C002B1CD1AB
:104E1000FB6803F500635B68FA6802F5006243F023
:104E2000020353607B689B6B43F400127B689A63B8
:104E30007B689B6B23F400227B689A637B689B6B87
:104E400023F480227B689A630BE07B689B6B23F4DE
:104E500000127B689A637B689B6B43F400227B683B
:104E60009A63FB6803F560631A4600231360FB68CE
:104E700003F500631946FB6803F500631A460B68E7
:104E80001360BB6B012B0CD1FB6A002B04D10021FA
:104E9000786800F045F908E00121786800F040F9F1
:104EA00003E00321786800F03BF91021786800F0F6
:104EB000F3F80346002B01D00123FB75786800F05E
:104EC0000FF90346002B01D00123FB75FB6803F5A6
:104ED00000631A4600231361FB6803F500631A465A
:104EE00000235361FB6803F500631A460023D36176
:104EF00000233B6143E03B695A01FB68134403F51F
:104F000010631B6803F00043B3F1004F18D13B69F5
:104F1000002B0AD13B695A01FB68134403F5106367
:104F20001A464FF00063136013E03B695A01FB68B7
:104F3000134403F510631A464FF09043136008E0E2
:104F40003B695A01FB68134403F510631A460023BA
:104F500013603B695A01FB68134403F510631A465A
:104F6000002313613B695A01FB68134403F5106386
:104F70001A464FF67F3393603B6901333B617B6A8E
:104F80003A699A42B7D300233B6143E03B695A0137
:104F9000FB68134403F530631B6803F00043B3F16F
:104FA000004F18D13B69002B0AD13B695A01FB68BD
:104FB000134403F530631A464FF00063136013E0A7
:104FC0003B695A01FB68134403F530631A464FF0FE
:104FD0009043136008E03B695A01FB68134403F5F2
:104FE00030631A46002313603B695A01FB6813447F
:104FF00003F530631A46002313613B695A01FB68CD
:10500000134403F530631A464FF67F3393603B69D0
:1050100001333B617B6A3A699A42B7D3FB6803F577
:1050200000631B69FA6802F5006223F48073136160
:105030007B6800229A617B686FF080425A613B6B0B
:10504000002B05D17B689B6943F010027B689A6155
:105050007B689A690F4B13437A689361FB6B002B53
:1050600005D07B689B6943F008027B689A61FB6C02
:10507000012B07D17B689B6943F0804343F0040315
:105080007A689361FB7D18461837BD46BDE88040BD
:1050900004B0704700383C8080B485B000AF7860C1
:1050A00039600023FB603B689B0143F020027B6872
:1050B0001A61FB680133FB60084A934201D903235C
:1050C00006E07B681B6903F02003202BF1D000234E
:1050D00018461437BD465DF8047B7047400D030049
:1050E00080B485B000AF78600023FB607B6810223D
:1050F0001A61FB680133FB60084A934201D903231C
:1051000006E07B681B6903F01003102BF1D000232D
:1051100018461437BD465DF8047B7047400D030008
:1051200080B485B000AF78600B46FB707B68FB6095
:10513000FB6803F500631A68FB78F96801F5006104
:1051400013430B60002318461437BD465DF8047BFB
:10515000704780B487B000AF78607B683B613B6983
:1051600003F500639B6803F00603FB60FB68002BFC
:1051700002D10023FB750AE0FB68022B02D0FB681A
:10518000062B02D10223FB7501E00F23FB75FB7D8B
:1051900018461C37BD465DF8047B704780B485B067
:1051A00000AF786039607B68FB603B681B78BB6050
:1051B0003B685B78012B3AD1FB6803F50063DA6941
:1051C0003B681B7803F00F03012101FA03F39BB244
:1051D000F96801F500611343CB61BB685A01FB68B4
:1051E000134403F510631B6803F40043002B55D1EF
:1051F000BB685A01FB68134403F510631A683B68E7
:105200009B68C3F30A013B68DB789B041943BB68C6
:105210009B050B431343BA685101FA680A4402F52F
:10522000106243F0805343F40043136036E0FB68A0
:1052300003F50063DA693B681B7803F00F03012173
:1052400001FA03F31B04F96801F500611343CB6114
:10525000BB685A01FB68134403F530631B6803F411
:105260000043002B1AD1BB685A01FB68134403F5B5
:1052700030631A683B689B68C3F30A013B68DB78BC
:105280009B040B431343BA685101FA680A4402F5C0
:10529000306243F0805343F4004313600023184608
:1052A0001437BD465DF8047B7047000080B485B0BC
:1052B00000AF786039607B68FB603B681B78BB603F
:1052C0003B685B78012B61D1BB685A01FB681344D2
:1052D00003F510631B6803F00043B3F1004F1FD1C7
:1052E000BB685A01FB68134403F510631B68BA6876
:1052F0005101FA680A4402F5106243F0006313603A
:10530000BB685A01FB68134403F510631B68BA6855
:105310005101FA680A4402F5106243F080431360B9
:10532000FB6803F50063DA6B3B681B7803F00F033F
:10533000012101FA03F39BB2DB43F96801F5006137
:105340001340CB63FB6803F50063DA693B681B78A5
:1053500003F00F03012101FA03F39BB2DB43F96869
:1053600001F500611340CB61BB685A01FB6813442F
:1053700003F510631A68BB685901FB680B4403F519
:1053800010631946354B13400B6060E0BB685A014F
:10539000FB68134403F530631B6803F00043B3F16B
:1053A000004F1FD1BB685A01FB68134403F53063FB
:1053B0001B68BA685101FA680A4402F5306243F08A
:1053C00000631360BB685A01FB68134403F5306344
:1053D0001B68BA685101FA680A4402F5306243F06A
:1053E00080431360FB6803F50063DA6B3B681B784E
:1053F00003F00F03012101FA03F31B04DB43F968F7
:1054000001F500611340CB63FB6803F50063DA69C3
:105410003B681B7803F00F03012101FA03F31B041F
:10542000DB43F96801F500611340CB61BB685A01A9
:10543000FB68134403F530631A68BB685901FB68C5
:105440000B4403F530631946054B13400B600023F2
:1054500018461437BD465DF8047B7047007833EC7E
:105460000078F3EF80B58AB002AFF860B9601346F8
:10547000FB71FB68FB61BB681B78BB61BB685B7839
:10548000012B40F05C81BB685B69002B32D1BB69AA
:105490005A01FB69134403F510631B69BA69510192
:1054A000FA690A4402F5106223F0FF5323F4C01393
:1054B0001361BB695A01FB69134403F510631B694F
:1054C000BA695101FA690A4402F5106243F40023F3
:1054D0001361BB695A01FB69134403F510631B692F
:1054E000BA695101FA690A4402F51062DB0CDB0467
:1054F000136174E0BB695A01FB69134403F510633F
:105500001B69BA695101FA690A4402F51062DB0CA1
:10551000DB041361BB695A01FB69134403F5106393
:105520001B69BA695101FA690A4402F5106223F055
:10553000FF5323F4C0131361BB695A01FB69134481
:1055400003F510631A69BB685969BB689B680B4413
:10555000591EBB689B68B1FBF3F3D9049D4B0B400C
:10556000B9694801F969014401F5106113430B6100
:10557000BB695A01FB69134403F510631A69BB68E0
:105580005B69C3F31203B9694801F969014401F584
:10559000106113430B61BB68DB78012B1FD1BB6922
:1055A0005A01FB69134403F510631B69BA69510181
:1055B000FA690A4402F5106223F0C0431361BB6923
:1055C0005A01FB69134403F510631B69BA69510161
:1055D000FA690A4402F5106243F000531361FB7943
:1055E000012B4BD1BB681B69002B09D0BB695A0149
:1055F000FB69134403F510631A46BB681B695361CA
:10560000BB68DB78012B28D1FB6903F500639B683D
:1056100003F48073002B10D1BB695A01FB6913445A
:1056200003F510631B68BA695101FA690A4402F56F
:10563000106243F0005313600FE0BB695A01FB692D
:10564000134403F510631B68BA695101FA690A44EF
:1056500002F5106243F080531360BB695A01FB6985
:10566000134403F510631B68BA695101FA690A44CF
:1056700002F5106243F0044313602FE1BB695A0145
:10568000FB69134403F510631B68BA695101FA6999
:105690000A4402F5106243F004431360BB68DB78F0
:1056A000012B15D0BB685B69002B00F01781FB69EB
:1056B00003F500635A6BBB681B7803F00F030121ED
:1056C00001FA03F3F96901F5006113434B6305E146
:1056D000FB6903F500639B6803F48073002B10D112
:1056E000BB695A01FB69134403F510631B68BA696F
:1056F0005101FA690A4402F5106243F00053136045
:105700000FE0BB695A01FB69134403F510631B6882
:10571000BA695101FA690A4402F5106243F08053F4
:105720001360BB68D968BB681A78BB685B6998B2BC
:10573000FB7900930346F86800F02BFACEE0BB69D2
:105740005A01FB69134403F530631B69BA695101BF
:10575000FA690A4402F53062DB0CDB041361BB69B1
:105760005A01FB69134403F530631B69BA6951019F
:10577000FA690A4402F5306223F0FF5323F4C013A0
:105780001361BB685B69002B26D1BB695A01FB69B9
:10579000134403F530631A69BB689B68C3F31203B3
:1057A000B9694801F969014401F5306113430B619E
:1057B000BB695A01FB69134403F530631B69BA697D
:1057C0005101FA690A4402F5306243F4002313617F
:1057D00036E000BF0000F81FBB685A69BB689B68D1
:1057E00013445A1EBB689B68B2FBF3F3FB82BB6990
:1057F0005A01FB69134403F530631A69FB8AD90423
:10580000394B0B40B9694801F969014401F5306130
:1058100013430B61BB695A01FB69134403F5306301
:105820001A69BB689B68F98A01FB03F3C3F312038F
:10583000B9694801F969014401F5306113430B610D
:10584000FB79012B0DD1BB68DB68002B09D0BB684D
:10585000D968BB695A01FB69134403F530630A46F2
:105860005A61BB68DB78012B28D1FB6903F5006323
:105870009B6803F48073002B10D1BB695A01FB694C
:10588000134403F530631B68BA695101FA690A448D
:1058900002F5306243F0005313600FE0BB695A0118
:1058A000FB69134403F530631B68BA695101FA6957
:1058B0000A4402F5306243F080531360BB695A0119
:1058C000FB69134403F530631B68BA695101FA6937
:1058D0000A4402F5306243F0044313600023184683
:1058E0002037BD4680BD00BF0000F81F80B487B0E0
:1058F00000AFF860B9601346FB71FB687B61BB6861
:105900001B783B61BB685B78012B40F0CD80BB68A6
:105910005B69002B32D13B695A017B69134403F563
:1059200010631B693A6951017A690A4402F51062F1
:1059300023F0FF5323F4C01313613B695A017B69C1
:10594000134403F510631B693A6951017A690A44EB
:1059500002F5106243F4002313613B695A017B692D
:10596000134403F510631B693A6951017A690A44CB
:1059700002F51062DB0CDB0413614EE03B695A0157
:105980007B69134403F510631B693A6951017A6915
:105990000A4402F51062DB0CDB0413613B695A0117
:1059A0007B69134403F510631B693A6951017A69F5
:1059B0000A4402F5106223F0FF5323F4C01313616D
:1059C000BB685A69BB689B689A4203D9BB689A68EE
:1059D000BB685A613B695A017B69134403F5106344
:1059E0001B693A6951017A690A4402F5106243F46D
:1059F000002313613B695A017B69134403F510636B
:105A00001A69BB685B69C3F3120339694801796994
:105A1000014401F5106113430B61FB79012B1ED189
:105A2000BB681B69002B09D03B695A017B69134491
:105A300003F510631A46BB681B6953613B695A0141
:105A40007B69134403F510631B683A6951017A6955
:105A50000A4402F5106243F00443136092E03B698C
:105A60005A017B69134403F510631B683A695101BD
:105A70007A690A4402F5106243F004431360BB687C
:105A80005B69002B7ED07B6903F500635A6BBB68B2
:105A90001B7803F00F03012101FA03F3796901F583
:105AA000006113434B636DE03B695A017B6913440A
:105AB00003F530631B693A6951017A690A4402F5BA
:105AC0003062DB0CDB0413613B695A017B691344D0
:105AD00003F530631B693A6951017A690A4402F59A
